{"abi":[{"type":"function","name":"lastCompletedMigration","inputs":[],"outputs":[{"name":"","type":"uint256","internalType":"uint256"}],"stateMutability":"view"},{"type":"function","name":"owner","inputs":[],"outputs":[{"name":"","type":"address","internalType":"address"}],"stateMutability":"view"},{"type":"function","name":"setCompleted","inputs":[{"name":"completed","type":"uint256","internalType":"uint256"}],"outputs":[],"stateMutability":"nonpayable"},{"type":"function","name":"transferOwnership","inputs":[{"name":"newOwner","type":"address","internalType":"address"}],"outputs":[],"stateMutability":"nonpayable"},{"type":"function","name":"upgrade","inputs":[{"name":"newAddress","type":"address","internalType":"address"}],"outputs":[],"stateMutability":"nonpayable"}],"bytecode":{"object":"0x608060405234801561001057600080fd5b50600080546001600160a01b03191633179055610227806100326000396000f3fe608060405234801561001057600080fd5b50600436106100575760003560e01c80630900f0101461005c5780638da5cb5b14610084578063f2fde38b146100a8578063fbdbad3c146100ce578063fdacd576146100e8575b600080fd5b6100826004803603602081101561007257600080fd5b50356001600160a01b0316610105565b005b61008c610182565b604080516001600160a01b039092168252519081900360200190f35b610082600480360360208110156100be57600080fd5b50356001600160a01b0316610191565b6100d66101d3565b60408051918252519081900360200190f35b610082600480360360208110156100fe57600080fd5b50356101d9565b6000546001600160a01b031633141561017f576000819050806001600160a01b031663fdacd5766001546040518263ffffffff1660e01b815260040180828152602001915050600060405180830381600087803b15801561016557600080fd5b505af1158015610179573d6000803e3d6000fd5b50505050505b50565b6000546001600160a01b031681565b6000546001600160a01b031633141561017f576001600160a01b0381161561017f57600080546001600160a01b0383166001600160a01b031990911617905550565b60015481565b6000546001600160a01b031633141561017f5760015556fea26469706673582212207a5149d03a0d74a7b25988faf6aa5f9683842ac2f188be381bfc52e0b43eb54264736f6c634300060c0033","linkReferences":{}},"methodIdentifiers":{"lastCompletedMigration()":"fbdbad3c","owner()":"8da5cb5b","setCompleted(uint256)":"fdacd576","transferOwnership(address)":"f2fde38b","upgrade(address)":"0900f010"},"id":1}