{"contracts/Migrations.sol":{"Migrations":{"abi":[{"constant":false,"inputs":[{"name":"newAddress","type":"address"}],"name":"upgrade","outputs":[],"payable":false,"type":"function"},{"constant":true,"inputs":[],"name":"owner","outputs":[{"name":"","type":"address"}],"payable":false,"type":"function"},{"constant":false,"inputs":[{"name":"newOwner","type":"address"}],"name":"transferOwnership","outputs":[],"payable":false,"type":"function"},{"constant":true,"inputs":[],"name":"lastCompletedMigration","outputs":[{"name":"","type":"uint256"}],"payable":false,"type":"function"},{"constant":false,"inputs":[{"name":"completed","type":"uint256"}],"name":"setCompleted","outputs":[],"payable":false,"type":"function"}],"devdoc":{"methods":{}},"evm":{"assembly":"    /* \"contracts/Migrations.sol\":50:398  contract Migrations is Ownable {... */\n  mstore(0x40, 0x60)\n    /* \"contracts/Ownable.sol\":79:127  function Ownable() {... */\ntag_1:\n    /* \"contracts/Ownable.sol\":104:109  owner */\n  0x0\n    /* \"contracts/Ownable.sol\":104:122  owner = msg.sender */\n  dup1\n  sload\n  not(sub(exp(0x2, 0xa0), 0x1))\n  and\n    /* \"contracts/Ownable.sol\":112:122  msg.sender */\n  caller\n  sub(exp(0x2, 0xa0), 0x1)\n    /* \"contracts/Ownable.sol\":104:122  owner = msg.sender */\n  and\n  or\n  swap1\n  sstore\n    /* \"contracts/Ownable.sol\":79:127  function Ownable() {... */\ntag_2:\n    /* \"contracts/Migrations.sol\":50:398  contract Migrations is Ownable {... */\ntag_3:\n  dataSize(sub_0)\n  dup1\n  dataOffset(sub_0)\n  0x0\n  codecopy\n  0x0\n  return\nstop\n\nsub_0: assembly {\n        /* \"contracts/Migrations.sol\":50:398  contract Migrations is Ownable {... */\n      mstore(0x40, 0x60)\n      and(div(calldataload(0x0), 0x100000000000000000000000000000000000000000000000000000000), 0xffffffff)\n      0x900f010\n      dup2\n      eq\n      tag_2\n      jumpi\n      dup1\n      0x8da5cb5b\n      eq\n      tag_3\n      jumpi\n      dup1\n      0xf2fde38b\n      eq\n      tag_4\n      jumpi\n      dup1\n      0xfbdbad3c\n      eq\n      tag_5\n      jumpi\n      dup1\n      0xfdacd576\n      eq\n      tag_6\n      jumpi\n    tag_1:\n      invalid\n        /* \"contracts/Migrations.sol\":233:396  function upgrade(address newAddress) onlyOwner {... */\n    tag_2:\n      jumpi(tag_7, iszero(callvalue))\n      invalid\n    tag_7:\n      tag_8\n      and(calldataload(0x4), 0xffffffffffffffffffffffffffffffffffffffff)\n      jump(tag_9)\n    tag_8:\n      stop\n        /* \"contracts/Ownable.sol\":54:74  address public owner */\n    tag_3:\n      jumpi(tag_10, iszero(callvalue))\n      invalid\n    tag_10:\n      tag_11\n      jump(tag_12)\n    tag_11:\n      0x40\n      dup1\n      mload\n      0xffffffffffffffffffffffffffffffffffffffff\n      swap1\n      swap3\n      and\n      dup3\n      mstore\n      mload\n      swap1\n      dup2\n      swap1\n      sub\n      0x20\n      add\n      swap1\n      return\n        /* \"contracts/Ownable.sol\":199:309  function transferOwnership(address newOwner) onlyOwner {... */\n    tag_4:\n      jumpi(tag_13, iszero(callvalue))\n      invalid\n    tag_13:\n      tag_8\n      and(calldataload(0x4), 0xffffffffffffffffffffffffffffffffffffffff)\n      jump(tag_15)\n    tag_14:\n      stop\n        /* \"contracts/Migrations.sol\":87:121  uint public lastCompletedMigration */\n    tag_5:\n      jumpi(tag_16, iszero(callvalue))\n      invalid\n    tag_16:\n      tag_17\n      jump(tag_18)\n    tag_17:\n      0x40\n      dup1\n      mload\n      swap2\n      dup3\n      mstore\n      mload\n      swap1\n      dup2\n      swap1\n      sub\n      0x20\n      add\n      swap1\n      return\n        /* \"contracts/Migrations.sol\":128:227  function setCompleted(uint completed) onlyOwner {... */\n    tag_6:\n      jumpi(tag_19, iszero(callvalue))\n      invalid\n    tag_19:\n      tag_8\n      calldataload(0x4)\n      jump(tag_21)\n    tag_20:\n      stop\n        /* \"contracts/Migrations.sol\":233:396  function upgrade(address newAddress) onlyOwner {... */\n    tag_9:\n        /* \"contracts/Migrations.sol\":290:309  Migrations upgraded */\n      0x0\n        /* \"contracts/Ownable.sol\":176:181  owner */\n      dup1\n      sload\n        /* \"contracts/Ownable.sol\":162:172  msg.sender */\n      caller\n        /* \"contracts/Ownable.sol\":176:181  owner */\n      0xffffffffffffffffffffffffffffffffffffffff\n        /* \"contracts/Ownable.sol\":162:181  msg.sender == owner */\n      swap1\n      dup2\n      and\n        /* \"contracts/Ownable.sol\":176:181  owner */\n      swap2\n      and\n        /* \"contracts/Ownable.sol\":162:181  msg.sender == owner */\n      eq\n        /* \"contracts/Ownable.sol\":158:190  if (msg.sender == owner)... */\n      iszero\n      tag_24\n      jumpi\n        /* \"contracts/Migrations.sol\":323:333  newAddress */\n      dup2\n        /* \"contracts/Migrations.sol\":290:334  Migrations upgraded = Migrations(newAddress) */\n      swap1\n      pop\n        /* \"contracts/Migrations.sol\":344:352  upgraded */\n      dup1\n        /* \"contracts/Migrations.sol\":344:365  upgraded.setCompleted */\n      0xffffffffffffffffffffffffffffffffffffffff\n      and\n      0xfdacd576\n        /* \"contracts/Migrations.sol\":366:388  lastCompletedMigration */\n      sload(0x1)\n        /* \"contracts/Migrations.sol\":344:389  upgraded.setCompleted(lastCompletedMigration) */\n      mload(0x40)\n      dup3\n      0xffffffff\n      and\n      0x100000000000000000000000000000000000000000000000000000000\n      mul\n      dup2\n      mstore\n      0x4\n      add\n      dup1\n      dup3\n      dup2\n      mstore\n      0x20\n      add\n      swap2\n      pop\n      pop\n      0x0\n      mload(0x40)\n      dup1\n      dup4\n      sub\n      dup2\n      0x0\n      dup8\n      dup1\n      extcodesize\n      iszero\n      iszero\n      tag_25\n      jumpi\n      invalid\n    tag_25:\n      sub(gas, 0x2c6)\n      call\n      iszero\n      iszero\n      tag_26\n      jumpi\n      invalid\n    tag_26:\n      pop\n      pop\n      pop\n        /* \"contracts/Ownable.sol\":189:190  _ */\n    tag_24:\n        /* \"contracts/Ownable.sol\":158:190  if (msg.sender == owner)... */\n    tag_23:\n        /* \"contracts/Migrations.sol\":233:396  function upgrade(address newAddress) onlyOwner {... */\n    tag_22:\n      pop\n      pop\n      jump\t// out\n        /* \"contracts/Ownable.sol\":54:74  address public owner */\n    tag_12:\n      and(0xffffffffffffffffffffffffffffffffffffffff, sload(0x0))\n      dup2\n      jump\t// out\n        /* \"contracts/Ownable.sol\":199:309  function transferOwnership(address newOwner) onlyOwner {... */\n    tag_15:\n        /* \"contracts/Ownable.sol\":176:181  owner */\n      sload(0x0)\n        /* \"contracts/Ownable.sol\":162:172  msg.sender */\n      caller\n        /* \"contracts/Ownable.sol\":176:181  owner */\n      0xffffffffffffffffffffffffffffffffffffffff\n        /* \"contracts/Ownable.sol\":162:181  msg.sender == owner */\n      swap1\n      dup2\n      and\n        /* \"contracts/Ownable.sol\":176:181  owner */\n      swap2\n      and\n        /* \"contracts/Ownable.sol\":162:181  msg.sender == owner */\n      eq\n        /* \"contracts/Ownable.sol\":158:190  if (msg.sender == owner)... */\n      iszero\n      tag_30\n      jumpi\n        /* \"contracts/Ownable.sol\":264:286  newOwner != address(0) */\n      0xffffffffffffffffffffffffffffffffffffffff\n      dup2\n      and\n      iszero\n        /* \"contracts/Ownable.sol\":260:304  if (newOwner != address(0)) owner = newOwner */\n      tag_30\n      jumpi\n        /* \"contracts/Ownable.sol\":288:293  owner */\n      0x0\n        /* \"contracts/Ownable.sol\":288:304  owner = newOwner */\n      dup1\n      sload\n      0xffffffffffffffffffffffff0000000000000000000000000000000000000000\n      and\n      0xffffffffffffffffffffffffffffffffffffffff\n      dup4\n      and\n      or\n      swap1\n      sstore\n        /* \"contracts/Ownable.sol\":260:304  if (newOwner != address(0)) owner = newOwner */\n    tag_30:\n        /* \"contracts/Ownable.sol\":189:190  _ */\n    tag_29:\n        /* \"contracts/Ownable.sol\":158:190  if (msg.sender == owner)... */\n    tag_28:\n        /* \"contracts/Ownable.sol\":199:309  function transferOwnership(address newOwner) onlyOwner {... */\n    tag_27:\n      pop\n      jump\t// out\n        /* \"contracts/Migrations.sol\":87:121  uint public lastCompletedMigration */\n    tag_18:\n      sload(0x1)\n      dup2\n      jump\t// out\n        /* \"contracts/Migrations.sol\":128:227  function setCompleted(uint completed) onlyOwner {... */\n    tag_21:\n        /* \"contracts/Ownable.sol\":176:181  owner */\n      sload(0x0)\n        /* \"contracts/Ownable.sol\":162:172  msg.sender */\n      caller\n        /* \"contracts/Ownable.sol\":176:181  owner */\n      0xffffffffffffffffffffffffffffffffffffffff\n        /* \"contracts/Ownable.sol\":162:181  msg.sender == owner */\n      swap1\n      dup2\n      and\n        /* \"contracts/Ownable.sol\":176:181  owner */\n      swap2\n      and\n        /* \"contracts/Ownable.sol\":162:181  msg.sender == owner */\n      eq\n        /* \"contracts/Ownable.sol\":158:190  if (msg.sender == owner)... */\n      iszero\n      tag_30\n      jumpi\n        /* \"contracts/Migrations.sol\":186:208  lastCompletedMigration */\n      0x1\n        /* \"contracts/Migrations.sol\":186:220  lastCompletedMigration = completed */\n      dup2\n      swap1\n      sstore\n        /* \"contracts/Ownable.sol\":189:190  _ */\n    tag_33:\n        /* \"contracts/Ownable.sol\":158:190  if (msg.sender == owner)... */\n    tag_32:\n        /* \"contracts/Migrations.sol\":128:227  function setCompleted(uint completed) onlyOwner {... */\n    tag_31:\n      pop\n      jump\t// out\n}\n","bytecode":{"linkReferences":{},"object":"60606040525b60008054600160a060020a03191633600160a060020a03161790555b5b6102dd806100316000396000f300606060405263ffffffff7c01000000000000000000000000000000000000000000000000000000006000350416630900f01081146100665780638da5cb5b14610091578063f2fde38b146100ca578063fbdbad3c146100f5578063fdacd57614610117575bfe5b341561006e57fe5b61008f73ffffffffffffffffffffffffffffffffffffffff6004351661012c565b005b341561009957fe5b6100a16101d9565b6040805173ffffffffffffffffffffffffffffffffffffffff9092168252519081900360200190f35b34156100d257fe5b61008f73ffffffffffffffffffffffffffffffffffffffff600435166101f5565b005b34156100fd57fe5b61010561027c565b60408051918252519081900360200190f35b341561011f57fe5b61008f600435610282565b005b600080543373ffffffffffffffffffffffffffffffffffffffff908116911614156101d3578190508073ffffffffffffffffffffffffffffffffffffffff1663fdacd5766001546040518263ffffffff167c010000000000000000000000000000000000000000000000000000000002815260040180828152602001915050600060405180830381600087803b15156101c157fe5b6102c65a03f115156101cf57fe5b5050505b5b5b5050565b60005473ffffffffffffffffffffffffffffffffffffffff1681565b6000543373ffffffffffffffffffffffffffffffffffffffff908116911614156102765773ffffffffffffffffffffffffffffffffffffffff81161561027657600080547fffffffffffffffffffffffff00000000000000000000000000000000000000001673ffffffffffffffffffffffffffffffffffffffff83161790555b5b5b5b50565b60015481565b6000543373ffffffffffffffffffffffffffffffffffffffff908116911614156102765760018190555b5b5b505600a165627a7a72305820861e295592e0f5c53c282712afe0a6a024b78bbfb8b69acca55f3fbb6cd4952e0029","opcodes":"PUSH1 0x60 PUSH1 0x40 MSTORE JUMPDEST PUSH1 0x0 DUP1 SLOAD PUSH1 0x1 PUSH1 0xA0 PUSH1 0x2 EXP SUB NOT AND CALLER PUSH1 0x1 PUSH1 0xA0 PUSH1 0x2 EXP SUB AND OR SWAP1 SSTORE JUMPDEST JUMPDEST PUSH2 0x2DD DUP1 PUSH2 0x31 PUSH1 0x0 CODECOPY PUSH1 0x0 RETURN STOP PUSH1 0x60 PUSH1 0x40 MSTORE PUSH4 0xFFFFFFFF PUSH29 0x100000000000000000000000000000000000000000000000000000000 PUSH1 0x0 CALLDATALOAD DIV AND PUSH4 0x900F010 DUP2 EQ PUSH2 0x66 JUMPI DUP1 PUSH4 0x8DA5CB5B EQ PUSH2 0x91 JUMPI DUP1 PUSH4 0xF2FDE38B EQ PUSH2 0xCA JUMPI DUP1 PUSH4 0xFBDBAD3C EQ PUSH2 0xF5 JUMPI DUP1 PUSH4 0xFDACD576 EQ PUSH2 0x117 JUMPI JUMPDEST INVALID JUMPDEST CALLVALUE ISZERO PUSH2 0x6E JUMPI INVALID JUMPDEST PUSH2 0x8F PUSH20 0xFFFFFFFFFFFFFFFFFFFFFFFFFFFFFFFFFFFFFFFF PUSH1 0x4 CALLDATALOAD AND PUSH2 0x12C JUMP JUMPDEST STOP JUMPDEST CALLVALUE ISZERO PUSH2 0x99 JUMPI INVALID JUMPDEST PUSH2 0xA1 PUSH2 0x1D9 JUMP JUMPDEST PUSH1 0x40 DUP1 MLOAD PUSH20 0xFFFFFFFFFFFFFFFFFFFFFFFFFFFFFFFFFFFFFFFF SWAP1 SWAP3 AND DUP3 MSTORE MLOAD SWAP1 DUP2 SWAP1 SUB PUSH1 0x20 ADD SWAP1 RETURN JUMPDEST CALLVALUE ISZERO PUSH2 0xD2 JUMPI INVALID JUMPDEST PUSH2 0x8F PUSH20 0xFFFFFFFFFFFFFFFFFFFFFFFFFFFFFFFFFFFFFFFF PUSH1 0x4 CALLDATALOAD AND PUSH2 0x1F5 JUMP JUMPDEST STOP JUMPDEST CALLVALUE ISZERO PUSH2 0xFD JUMPI INVALID JUMPDEST PUSH2 0x105 PUSH2 0x27C JUMP JUMPDEST PUSH1 0x40 DUP1 MLOAD SWAP2 DUP3 MSTORE MLOAD SWAP1 DUP2 SWAP1 SUB PUSH1 0x20 ADD SWAP1 RETURN JUMPDEST CALLVALUE ISZERO PUSH2 0x11F JUMPI INVALID JUMPDEST PUSH2 0x8F PUSH1 0x4 CALLDATALOAD PUSH2 0x282 JUMP JUMPDEST STOP JUMPDEST PUSH1 0x0 DUP1 SLOAD CALLER PUSH20 0xFFFFFFFFFFFFFFFFFFFFFFFFFFFFFFFFFFFFFFFF SWAP1 DUP2 AND SWAP2 AND EQ ISZERO PUSH2 0x1D3 JUMPI DUP2 SWAP1 POP DUP1 PUSH20 0xFFFFFFFFFFFFFFFFFFFFFFFFFFFFFFFFFFFFFFFF AND PUSH4 0xFDACD576 PUSH1 0x1 SLOAD PUSH1 0x40 MLOAD DUP3 PUSH4 0xFFFFFFFF AND PUSH29 0x100000000000000000000000000000000000000000000000000000000 MUL DUP2 MSTORE PUSH1 0x4 ADD DUP1 DUP3 DUP2 MSTORE PUSH1 0x20 ADD SWAP2 POP POP PUSH1 0x0 PUSH1 0x40 MLOAD DUP1 DUP4 SUB DUP2 PUSH1 0x0 DUP8 DUP1 EXTCODESIZE ISZERO ISZERO PUSH2 0x1C1 JUMPI INVALID JUMPDEST PUSH2 0x2C6 GAS SUB CALL ISZERO ISZERO PUSH2 0x1CF JUMPI INVALID JUMPDEST POP POP POP JUMPDEST JUMPDEST JUMPDEST POP POP JUMP JUMPDEST PUSH1 0x0 SLOAD PUSH20 0xFFFFFFFFFFFFFFFFFFFFFFFFFFFFFFFFFFFFFFFF AND DUP2 JUMP JUMPDEST PUSH1 0x0 SLOAD CALLER PUSH20 0xFFFFFFFFFFFFFFFFFFFFFFFFFFFFFFFFFFFFFFFF SWAP1 DUP2 AND SWAP2 AND EQ ISZERO PUSH2 0x276 JUMPI PUSH20 0xFFFFFFFFFFFFFFFFFFFFFFFFFFFFFFFFFFFFFFFF DUP2 AND ISZERO PUSH2 0x276 JUMPI PUSH1 0x0 DUP1 SLOAD PUSH32 0xFFFFFFFFFFFFFFFFFFFFFFFF0000000000000000000000000000000000000000 AND PUSH20 0xFFFFFFFFFFFFFFFFFFFFFFFFFFFFFFFFFFFFFFFF DUP4 AND OR SWAP1 SSTORE JUMPDEST JUMPDEST JUMPDEST JUMPDEST POP JUMP JUMPDEST PUSH1 0x1 SLOAD DUP2 JUMP JUMPDEST PUSH1 0x0 SLOAD CALLER PUSH20 0xFFFFFFFFFFFFFFFFFFFFFFFFFFFFFFFFFFFFFFFF SWAP1 DUP2 AND SWAP2 AND EQ ISZERO PUSH2 0x276 JUMPI PUSH1 0x1 DUP2 SWAP1 SSTORE JUMPDEST JUMPDEST JUMPDEST POP JUMP STOP LOG1 PUSH6 0x627A7A723058 SHA3 DUP7 0x1e 0x29 SSTORE SWAP3 0xe0 0xf5 0xc5 EXTCODECOPY 0x28 0x27 SLT 0xaf 0xe0 0xa6 LOG0 0x24 0xb7 DUP12 0xbf 0xb8 0xb6 SWAP11 0xcc 0xa5 0x5f 0x3f 0xbb PUSH13 0xD4952E00290000000000000000 "},"gasEstimates":{"creation":{"codeDepositCost":"146600","executionCost":"20536","totalCost":"167136"},"external":{"lastCompletedMigration()":"421","owner()":"392","setCompleted(uint256)":"20454","transferOwnership(address)":"20660","upgrade(address)":"infinite"}},"methodIdentifiers":{"lastCompletedMigration()":"fbdbad3c","owner()":"8da5cb5b","setCompleted(uint256)":"fdacd576","transferOwnership(address)":"f2fde38b","upgrade(address)":"0900f010"}},"userdoc":{"methods":{}}}}}