{"contracts/RLC.sol":{"RLC":{"abi":[{"constant":true,"inputs":[],"name":"name","outputs":[{"name":"","type":"string"}],"payable":false,"type":"function"},{"constant":false,"inputs":[{"name":"_spender","type":"address"},{"name":"_value","type":"uint256"}],"name":"approve","outputs":[{"name":"","type":"bool"}],"payable":false,"type":"function"},{"constant":false,"inputs":[{"name":"_to","type":"address"},{"name":"_value","type":"uint256"}],"name":"refill","outputs":[{"name":"","type":"bool"}],"payable":false,"type":"function"},{"constant":true,"inputs":[],"name":"totalSupply","outputs":[{"name":"","type":"uint256"}],"payable":false,"type":"function"},{"constant":false,"inputs":[{"name":"_from","type":"address"},{"name":"_to","type":"address"},{"name":"_value","type":"uint256"}],"name":"transferFrom","outputs":[{"name":"","type":"bool"}],"payable":false,"type":"function"},{"constant":true,"inputs":[],"name":"decimals","outputs":[{"name":"","type":"uint8"}],"payable":false,"type":"function"},{"constant":true,"inputs":[],"name":"initialSupply","outputs":[{"name":"","type":"uint256"}],"payable":false,"type":"function"},{"constant":false,"inputs":[{"name":"_value","type":"uint256"}],"name":"burn","outputs":[{"name":"","type":"bool"}],"payable":false,"type":"function"},{"constant":true,"inputs":[],"name":"version","outputs":[{"name":"","type":"string"}],"payable":false,"type":"function"},{"constant":false,"inputs":[{"name":"_giver","type":"address"},{"name":"_spender","type":"address"},{"name":"_value","type":"uint256"}],"name":"forceApprove","outputs":[{"name":"","type":"bool"}],"payable":false,"type":"function"},{"constant":true,"inputs":[{"name":"_owner","type":"address"}],"name":"balanceOf","outputs":[{"name":"balance","type":"uint256"}],"payable":false,"type":"function"},{"constant":true,"inputs":[],"name":"owner","outputs":[{"name":"","type":"address"}],"payable":false,"type":"function"},{"constant":true,"inputs":[],"name":"symbol","outputs":[{"name":"","type":"string"}],"payable":false,"type":"function"},{"constant":false,"inputs":[{"name":"_to","type":"address"},{"name":"_value","type":"uint256"}],"name":"transfer","outputs":[{"name":"","type":"bool"}],"payable":false,"type":"function"},{"constant":false,"inputs":[{"name":"_spender","type":"address"},{"name":"_value","type":"uint256"},{"name":"_extraData","type":"bytes"}],"name":"approveAndCall","outputs":[],"payable":false,"type":"function"},{"constant":true,"inputs":[],"name":"locked","outputs":[{"name":"","type":"bool"}],"payable":false,"type":"function"},{"constant":true,"inputs":[{"name":"_owner","type":"address"},{"name":"_spender","type":"address"}],"name":"allowance","outputs":[{"name":"remaining","type":"uint256"}],"payable":false,"type":"function"},{"constant":false,"inputs":[{"name":"_toburn","type":"address"},{"name":"_value","type":"uint256"}],"name":"forceBurn","outputs":[{"name":"","type":"bool"}],"payable":false,"type":"function"},{"constant":false,"inputs":[{"name":"newOwner","type":"address"}],"name":"transferOwnership","outputs":[],"payable":false,"type":"function"},{"inputs":[],"payable":false,"type":"constructor"},{"anonymous":false,"inputs":[{"indexed":true,"name":"from","type":"address"},{"indexed":true,"name":"to","type":"address"},{"indexed":false,"name":"value","type":"uint256"}],"name":"Transfer","type":"event"},{"anonymous":false,"inputs":[{"indexed":true,"name":"owner","type":"address"},{"indexed":true,"name":"spender","type":"address"},{"indexed":false,"name":"value","type":"uint256"}],"name":"Approval","type":"event"}],"devdoc":{"methods":{}},"evm":{"assembly":"    /* \"contracts/RLC.sol\":341:371  string public version = 'v0.1' */\n  0xa0\n    /* \"contracts/RLC.sol\":133:3483  contract RLC is ERC20, SafeMath, Ownable {... */\n  0x40\n    /* \"contracts/RLC.sol\":341:371  string public version = 'v0.1' */\n  mstore\n  0x4\n    /* \"contracts/RLC.sol\":133:3483  contract RLC is ERC20, SafeMath, Ownable {... */\n  0x60\n    /* \"contracts/RLC.sol\":341:371  string public version = 'v0.1' */\n  dup2\n  swap1\n  mstore\n  0x76302e3100000000000000000000000000000000000000000000000000000000\n  0x80\n  swap1\n  dup2\n  mstore\n  tag_1\n  swap2\n  0x5\n  swap2\n  swap1\n  jump\t// in(tag_2)\ntag_1:\n  pop\n    /* \"contracts/RLC.sol\":667:1078  function RLC() {... */\n  jumpi(tag_3, iszero(callvalue))\n  invalid\ntag_3:\ntag_4:\n    /* \"contracts/Ownable.sol\":79:127  function Ownable() {... */\ntag_5:\n    /* \"contracts/Ownable.sol\":104:109  owner */\n  0x1\n    /* \"contracts/Ownable.sol\":104:122  owner = msg.sender */\n  dup1\n  sload\n  not(sub(exp(0x2, 0xa0), 0x1))\n  and\n    /* \"contracts/Ownable.sol\":112:122  msg.sender */\n  caller\n  sub(exp(0x2, 0xa0), 0x1)\n    /* \"contracts/Ownable.sol\":104:122  owner = msg.sender */\n  and\n  or\n  swap1\n  sstore\n    /* \"contracts/Ownable.sol\":79:127  function Ownable() {... */\ntag_6:\n    /* \"contracts/RLC.sol\":704:721  87000000000000000 */\n  0x1351609ff758000\n    /* \"contracts/RLC.sol\":688:701  initialSupply */\n  0x6\n    /* \"contracts/RLC.sol\":688:721  initialSupply = 87000000000000000 */\n  dup2\n  swap1\n  sstore\n    /* \"contracts/RLC.sol\":727:738  totalSupply */\n  0x7\n    /* \"contracts/RLC.sol\":727:754  totalSupply = initialSupply */\n  dup2\n  swap1\n  sstore\n  sub(exp(0x2, 0xa0), 0x1)\n    /* \"contracts/RLC.sol\":769:779  msg.sender */\n  caller\n    /* \"contracts/RLC.sol\":760:780  balances[msg.sender] */\n  and\n  0x0\n  swap1\n  dup2\n  mstore\n    /* \"contracts/RLC.sol\":760:768  balances */\n  0x9\n    /* \"contracts/RLC.sol\":760:780  balances[msg.sender] */\n  0x20\n  swap1\n  dup2\n  mstore\n  0x40\n  swap2\n  dup3\n  swap1\n  sha3\n    /* \"contracts/RLC.sol\":760:796  balances[msg.sender] = initialSupply */\n  swap3\n  swap1\n  swap3\n  sstore\n    /* \"contracts/RLC.sol\":840:864  name = 'iExec RLC Token' */\n  dup1\n  mload\n  dup1\n  dup3\n  add\n  swap1\n  swap2\n  mstore\n  0xf\n  dup1\n  dup3\n  mstore\n  0x694578656320524c4320546f6b656e0000000000000000000000000000000000\n  swap2\n  swap1\n  swap3\n  add\n  swap1\n  dup2\n  mstore\n  tag_8\n  swap2\n    /* \"contracts/RLC.sol\":840:844  name */\n  0x2\n  swap2\n    /* \"contracts/RLC.sol\":840:864  name = 'iExec RLC Token' */\n  swap1\n  jump\t// in(tag_2)\ntag_8:\n  pop\n    /* \"contracts/RLC.sol\":914:928  symbol = 'RLC' */\n  0x40\n  dup1\n  mload\n  dup1\n  dup3\n  add\n  swap1\n  swap2\n  mstore\n  0x3\n  dup1\n  dup3\n  mstore\n  0x524c430000000000000000000000000000000000000000000000000000000000\n  0x20\n  swap1\n  swap3\n  add\n  swap2\n  dup3\n  mstore\n  tag_9\n  swap2\n  dup2\n  jump\t// in(tag_2)\ntag_9:\n  pop\n    /* \"contracts/RLC.sol\":995:1003  decimals */\n  0x4\n    /* \"contracts/RLC.sol\":995:1007  decimals = 9 */\n  dup1\n  sload\n  not(0xff)\n  and\n    /* \"contracts/RLC.sol\":1006:1007  9 */\n  0x9\n    /* \"contracts/RLC.sol\":995:1007  decimals = 9 */\n  or\n  swap1\n  sstore\n    /* \"contracts/RLC.sol\":667:1078  function RLC() {... */\ntag_7:\n    /* \"contracts/RLC.sol\":133:3483  contract RLC is ERC20, SafeMath, Ownable {... */\n  jump(tag_10)\ntag_2:\n  dup3\n  dup1\n  sload\n  0x1\n  dup2\n  0x1\n  and\n  iszero\n  0x100\n  mul\n  sub\n  and\n  0x2\n  swap1\n  div\n  swap1\n  0x0\n  mstore\n  sha3(0x0, 0x20)\n  swap1\n  0x1f\n  add\n  0x20\n  swap1\n  div\n  dup2\n  add\n  swap3\n  dup3\n  0x1f\n  lt\n  tag_12\n  jumpi\n  dup1\n  mload\n  not(0xff)\n  and\n  dup4\n  dup1\n  add\n  or\n  dup6\n  sstore\n  jump(tag_14)\ntag_12:\n  dup3\n  dup1\n  add\n  0x1\n  add\n  dup6\n  sstore\n  dup3\n  iszero\n  tag_14\n  jumpi\n  swap2\n  dup3\n  add\ntag_13:\n  dup3\n  dup2\n  gt\n  iszero\n  tag_14\n  jumpi\n  dup3\n  mload\n  dup3\n  sstore\n  swap2\n  0x20\n  add\n  swap2\n  swap1\n  0x1\n  add\n  swap1\n  jump(tag_13)\ntag_14:\ntag_11:\n  pop\n  tag_15\n  swap3\n  swap2\n  pop\n  jump\t// in(tag_16)\ntag_15:\n  pop\n  swap1\n  jump\t// out\ntag_16:\n  tag_17\n  swap2\n  swap1\ntag_18:\n  dup1\n  dup3\n  gt\n  iszero\n  tag_15\n  jumpi\n  0x0\n  dup2\n  sstore\n  0x1\n  add\n  jump(tag_18)\ntag_19:\n  pop\n  swap1\n  jump\ntag_17:\n  swap1\n  jump\t// out\ntag_10:\n  dataSize(sub_0)\n  dup1\n  dataOffset(sub_0)\n  0x0\n  codecopy\n  0x0\n  return\nstop\n\nsub_0: assembly {\n        /* \"contracts/RLC.sol\":133:3483  contract RLC is ERC20, SafeMath, Ownable {... */\n      mstore(0x40, 0x60)\n      jumpi(tag_1, iszero(calldatasize))\n      and(div(calldataload(0x0), 0x100000000000000000000000000000000000000000000000000000000), 0xffffffff)\n      0x6fdde03\n      dup2\n      eq\n      tag_2\n      jumpi\n      dup1\n      0x95ea7b3\n      eq\n      tag_3\n      jumpi\n      dup1\n      0xaa3ae7e\n      eq\n      tag_4\n      jumpi\n      dup1\n      0x18160ddd\n      eq\n      tag_5\n      jumpi\n      dup1\n      0x23b872dd\n      eq\n      tag_6\n      jumpi\n      dup1\n      0x313ce567\n      eq\n      tag_7\n      jumpi\n      dup1\n      0x378dc3dc\n      eq\n      tag_8\n      jumpi\n      dup1\n      0x42966c68\n      eq\n      tag_9\n      jumpi\n      dup1\n      0x54fd4d50\n      eq\n      tag_10\n      jumpi\n      dup1\n      0x61f49ed6\n      eq\n      tag_11\n      jumpi\n      dup1\n      0x70a08231\n      eq\n      tag_12\n      jumpi\n      dup1\n      0x8da5cb5b\n      eq\n      tag_13\n      jumpi\n      dup1\n      0x95d89b41\n      eq\n      tag_14\n      jumpi\n      dup1\n      0xa9059cbb\n      eq\n      tag_15\n      jumpi\n      dup1\n      0xcae9ca51\n      eq\n      tag_16\n      jumpi\n      dup1\n      0xcf309012\n      eq\n      tag_17\n      jumpi\n      dup1\n      0xdd62ed3e\n      eq\n      tag_18\n      jumpi\n      dup1\n      0xe2d6f634\n      eq\n      tag_19\n      jumpi\n      dup1\n      0xf2fde38b\n      eq\n      tag_20\n      jumpi\n    tag_1:\n      invalid\n        /* \"contracts/RLC.sol\":219:237  string public name */\n    tag_2:\n      jumpi(tag_21, iszero(callvalue))\n      invalid\n    tag_21:\n      tag_22\n      jump(tag_23)\n    tag_22:\n      0x40\n      dup1\n      mload\n      0x20\n      dup1\n      dup3\n      mstore\n      dup4\n      mload\n      dup2\n      dup4\n      add\n      mstore\n      dup4\n      mload\n      swap2\n      swap3\n      dup4\n      swap3\n      swap1\n      dup4\n      add\n      swap2\n      dup6\n      add\n      swap1\n      dup1\n      dup4\n      dup4\n        /* \"--CODEGEN--\":18:20   */\n      dup3\n      iszero\n        /* \"--CODEGEN--\":13:16   */\n      tag_24\n        /* \"--CODEGEN--\":7:12   */\n      jumpi\n        /* \"--CODEGEN--\":32:37   */\n    tag_25:\n        /* \"--CODEGEN--\":59:62   */\n      dup1\n        /* \"--CODEGEN--\":53:58   */\n      mload\n        /* \"--CODEGEN--\":48:51   */\n      dup3\n        /* \"--CODEGEN--\":41:47   */\n      mstore\n        /* \"--CODEGEN--\":93:95   */\n      0x20\n        /* \"--CODEGEN--\":88:91   */\n      dup4\n        /* \"--CODEGEN--\":85:87   */\n      gt\n        /* \"--CODEGEN--\":78:84   */\n      iszero\n        /* \"--CODEGEN--\":73:76   */\n      tag_24\n        /* \"--CODEGEN--\":67:72   */\n      jumpi\n      not(0x1f)\n        /* \"--CODEGEN--\":152:155   */\n      swap1\n      swap3\n      add\n      swap2\n        /* \"--CODEGEN--\":117:119   */\n      0x20\n        /* \"--CODEGEN--\":108:111   */\n      swap2\n      dup3\n      add\n      swap2\n        /* \"--CODEGEN--\":130:133   */\n      add\n        /* \"--CODEGEN--\":172:177   */\n      tag_25\n        /* \"--CODEGEN--\":167:171   */\n      jump\n        /* \"--CODEGEN--\":181:184   */\n    tag_24:\n        /* \"--CODEGEN--\":3:189   */\n      pop\n      pop\n      pop\n      swap1\n      pop\n      swap1\n      dup2\n      add\n      swap1\n      0x1f\n      and\n      dup1\n      iszero\n      tag_26\n      jumpi\n      dup1\n      dup3\n      sub\n      dup1\n      mload\n      0x1\n      dup4\n      0x20\n      sub\n      0x100\n      exp\n      sub\n      not\n      and\n      dup2\n      mstore\n      0x20\n      add\n      swap2\n      pop\n    tag_26:\n      pop\n      swap3\n      pop\n      pop\n      pop\n      mload(0x40)\n      dup1\n      swap2\n      sub\n      swap1\n      return\n        /* \"contracts/RLC.sol\":2841:3014  function approve(address _spender, uint _value) returns (bool) {... */\n    tag_3:\n      jumpi(tag_27, iszero(callvalue))\n      invalid\n    tag_27:\n      tag_28\n      and(calldataload(0x4), sub(exp(0x2, 0xa0), 0x1))\n      calldataload(0x24)\n      jump(tag_29)\n    tag_28:\n      0x40\n      dup1\n      mload\n      swap2\n      iszero\n      iszero\n      dup3\n      mstore\n      mload\n      swap1\n      dup2\n      swap1\n      sub\n      0x20\n      add\n      swap1\n      return\n        /* \"contracts/RLC.sol\":1133:1361  function refill(address _to, uint _value) onlyOwner returns (bool) {... */\n    tag_4:\n      jumpi(tag_30, iszero(callvalue))\n      invalid\n    tag_30:\n      tag_28\n      and(calldataload(0x4), sub(exp(0x2, 0xa0), 0x1))\n      calldataload(0x24)\n      jump(tag_32)\n    tag_31:\n      0x40\n      dup1\n      mload\n      swap2\n      iszero\n      iszero\n      dup3\n      mstore\n      mload\n      swap1\n      dup2\n      swap1\n      sub\n      0x20\n      add\n      swap1\n      return\n        /* \"contracts/RLC.sol\":404:427  uint public totalSupply */\n    tag_5:\n      jumpi(tag_33, iszero(callvalue))\n      invalid\n    tag_33:\n      tag_34\n      jump(tag_35)\n    tag_34:\n      0x40\n      dup1\n      mload\n      swap2\n      dup3\n      mstore\n      mload\n      swap1\n      dup2\n      swap1\n      sub\n      0x20\n      add\n      swap1\n      return\n        /* \"contracts/RLC.sol\":2378:2732  function transferFrom(address _from, address _to, uint _value) returns (bool) {... */\n    tag_6:\n      jumpi(tag_36, iszero(callvalue))\n      invalid\n    tag_36:\n      tag_28\n      sub(exp(0x2, 0xa0), 0x1)\n      calldataload(0x4)\n      dup2\n      and\n      swap1\n      calldataload(0x24)\n      and\n      calldataload(0x44)\n      jump(tag_38)\n    tag_37:\n      0x40\n      dup1\n      mload\n      swap2\n      iszero\n      iszero\n      dup3\n      mstore\n      mload\n      swap1\n      dup2\n      swap1\n      sub\n      0x20\n      add\n      swap1\n      return\n        /* \"contracts/RLC.sol\":284:305  uint8 public decimals */\n    tag_7:\n      jumpi(tag_39, iszero(callvalue))\n      invalid\n    tag_39:\n      tag_40\n      jump(tag_41)\n    tag_40:\n      0x40\n      dup1\n      mload\n      0xff\n      swap1\n      swap3\n      and\n      dup3\n      mstore\n      mload\n      swap1\n      dup2\n      swap1\n      sub\n      0x20\n      add\n      swap1\n      return\n        /* \"contracts/RLC.sol\":375:400  uint public initialSupply */\n    tag_8:\n      jumpi(tag_42, iszero(callvalue))\n      invalid\n    tag_42:\n      tag_34\n      jump(tag_44)\n    tag_43:\n      0x40\n      dup1\n      mload\n      swap2\n      dup3\n      mstore\n      mload\n      swap1\n      dup2\n      swap1\n      sub\n      0x20\n      add\n      swap1\n      return\n        /* \"contracts/RLC.sol\":1912:2132  function burn(uint256 _value) returns (bool){... */\n    tag_9:\n      jumpi(tag_45, iszero(callvalue))\n      invalid\n    tag_45:\n      tag_28\n      calldataload(0x4)\n      jump(tag_47)\n    tag_46:\n      0x40\n      dup1\n      mload\n      swap2\n      iszero\n      iszero\n      dup3\n      mstore\n      mload\n      swap1\n      dup2\n      swap1\n      sub\n      0x20\n      add\n      swap1\n      return\n        /* \"contracts/RLC.sol\":341:371  string public version = 'v0.1' */\n    tag_10:\n      jumpi(tag_48, iszero(callvalue))\n      invalid\n    tag_48:\n      tag_22\n      jump(tag_50)\n    tag_49:\n      0x40\n      dup1\n      mload\n      0x20\n      dup1\n      dup3\n      mstore\n      dup4\n      mload\n      dup2\n      dup4\n      add\n      mstore\n      dup4\n      mload\n      swap2\n      swap3\n      dup4\n      swap3\n      swap1\n      dup4\n      add\n      swap2\n      dup6\n      add\n      swap1\n      dup1\n      dup4\n      dup4\n        /* \"--CODEGEN--\":18:20   */\n      dup3\n      iszero\n        /* \"--CODEGEN--\":13:16   */\n      tag_24\n        /* \"--CODEGEN--\":7:12   */\n      jumpi\n        /* \"--CODEGEN--\":32:37   */\n    tag_52:\n        /* \"--CODEGEN--\":59:62   */\n      dup1\n        /* \"--CODEGEN--\":53:58   */\n      mload\n        /* \"--CODEGEN--\":48:51   */\n      dup3\n        /* \"--CODEGEN--\":41:47   */\n      mstore\n        /* \"--CODEGEN--\":93:95   */\n      0x20\n        /* \"--CODEGEN--\":88:91   */\n      dup4\n        /* \"--CODEGEN--\":85:87   */\n      gt\n        /* \"--CODEGEN--\":78:84   */\n      iszero\n        /* \"--CODEGEN--\":73:76   */\n      tag_24\n        /* \"--CODEGEN--\":67:72   */\n      jumpi\n      not(0x1f)\n        /* \"--CODEGEN--\":152:155   */\n      swap1\n      swap3\n      add\n      swap2\n        /* \"--CODEGEN--\":117:119   */\n      0x20\n        /* \"--CODEGEN--\":108:111   */\n      swap2\n      dup3\n      add\n      swap2\n        /* \"--CODEGEN--\":130:133   */\n      add\n        /* \"--CODEGEN--\":172:177   */\n      tag_25\n        /* \"--CODEGEN--\":167:171   */\n      jump\n        /* \"--CODEGEN--\":181:184   */\n    tag_51:\n        /* \"--CODEGEN--\":3:189   */\n      pop\n      pop\n      pop\n      swap1\n      pop\n      swap1\n      dup2\n      add\n      swap1\n      0x1f\n      and\n      dup1\n      iszero\n      tag_26\n      jumpi\n      dup1\n      dup3\n      sub\n      dup1\n      mload\n      0x1\n      dup4\n      0x20\n      sub\n      0x100\n      exp\n      sub\n      not\n      and\n      dup2\n      mstore\n      0x20\n      add\n      swap2\n      pop\n    tag_53:\n      pop\n      swap3\n      pop\n      pop\n      pop\n      mload(0x40)\n      dup1\n      swap2\n      sub\n      swap1\n      return\n        /* \"contracts/RLC.sol\":1415:1611  function forceApprove(address _giver, address _spender, uint _value) onlyOwner returns (bool) {... */\n    tag_11:\n      jumpi(tag_54, iszero(callvalue))\n      invalid\n    tag_54:\n      tag_28\n      sub(exp(0x2, 0xa0), 0x1)\n      calldataload(0x4)\n      dup2\n      and\n      swap1\n      calldataload(0x24)\n      and\n      calldataload(0x44)\n      jump(tag_56)\n    tag_55:\n      0x40\n      dup1\n      mload\n      swap2\n      iszero\n      iszero\n      dup3\n      mstore\n      mload\n      swap1\n      dup2\n      swap1\n      sub\n      0x20\n      add\n      swap1\n      return\n        /* \"contracts/RLC.sol\":2736:2837  function balanceOf(address _owner) constant returns (uint balance) {... */\n    tag_12:\n      jumpi(tag_57, iszero(callvalue))\n      invalid\n    tag_57:\n      tag_34\n      and(calldataload(0x4), sub(exp(0x2, 0xa0), 0x1))\n      jump(tag_59)\n    tag_58:\n      0x40\n      dup1\n      mload\n      swap2\n      dup3\n      mstore\n      mload\n      swap1\n      dup2\n      swap1\n      sub\n      0x20\n      add\n      swap1\n      return\n        /* \"contracts/Ownable.sol\":54:74  address public owner */\n    tag_13:\n      jumpi(tag_60, iszero(callvalue))\n      invalid\n    tag_60:\n      tag_61\n      jump(tag_62)\n    tag_61:\n      0x40\n      dup1\n      mload\n      sub(exp(0x2, 0xa0), 0x1)\n      swap1\n      swap3\n      and\n      dup3\n      mstore\n      mload\n      swap1\n      dup2\n      swap1\n      sub\n      0x20\n      add\n      swap1\n      return\n        /* \"contracts/RLC.sol\":260:280  string public symbol */\n    tag_14:\n      jumpi(tag_63, iszero(callvalue))\n      invalid\n    tag_63:\n      tag_22\n      jump(tag_65)\n    tag_64:\n      0x40\n      dup1\n      mload\n      0x20\n      dup1\n      dup3\n      mstore\n      dup4\n      mload\n      dup2\n      dup4\n      add\n      mstore\n      dup4\n      mload\n      swap2\n      swap3\n      dup4\n      swap3\n      swap1\n      dup4\n      add\n      swap2\n      dup6\n      add\n      swap1\n      dup1\n      dup4\n      dup4\n        /* \"--CODEGEN--\":18:20   */\n      dup3\n      iszero\n        /* \"--CODEGEN--\":13:16   */\n      tag_24\n        /* \"--CODEGEN--\":7:12   */\n      jumpi\n        /* \"--CODEGEN--\":32:37   */\n    tag_67:\n        /* \"--CODEGEN--\":59:62   */\n      dup1\n        /* \"--CODEGEN--\":53:58   */\n      mload\n        /* \"--CODEGEN--\":48:51   */\n      dup3\n        /* \"--CODEGEN--\":41:47   */\n      mstore\n        /* \"--CODEGEN--\":93:95   */\n      0x20\n        /* \"--CODEGEN--\":88:91   */\n      dup4\n        /* \"--CODEGEN--\":85:87   */\n      gt\n        /* \"--CODEGEN--\":78:84   */\n      iszero\n        /* \"--CODEGEN--\":73:76   */\n      tag_24\n        /* \"--CODEGEN--\":67:72   */\n      jumpi\n      not(0x1f)\n        /* \"--CODEGEN--\":152:155   */\n      swap1\n      swap3\n      add\n      swap2\n        /* \"--CODEGEN--\":117:119   */\n      0x20\n        /* \"--CODEGEN--\":108:111   */\n      swap2\n      dup3\n      add\n      swap2\n        /* \"--CODEGEN--\":130:133   */\n      add\n        /* \"--CODEGEN--\":172:177   */\n      tag_25\n        /* \"--CODEGEN--\":167:171   */\n      jump\n        /* \"--CODEGEN--\":181:184   */\n    tag_66:\n        /* \"--CODEGEN--\":3:189   */\n      pop\n      pop\n      pop\n      swap1\n      pop\n      swap1\n      dup2\n      add\n      swap1\n      0x1f\n      and\n      dup1\n      iszero\n      tag_26\n      jumpi\n      dup1\n      dup3\n      sub\n      dup1\n      mload\n      0x1\n      dup4\n      0x20\n      sub\n      0x100\n      exp\n      sub\n      not\n      and\n      dup2\n      mstore\n      0x20\n      add\n      swap2\n      pop\n    tag_68:\n      pop\n      swap3\n      pop\n      pop\n      pop\n      mload(0x40)\n      dup1\n      swap2\n      sub\n      swap1\n      return\n        /* \"contracts/RLC.sol\":2136:2374  function transfer(address _to, uint _value) returns (bool) {... */\n    tag_15:\n      jumpi(tag_69, iszero(callvalue))\n      invalid\n    tag_69:\n      tag_28\n      and(calldataload(0x4), sub(exp(0x2, 0xa0), 0x1))\n      calldataload(0x24)\n      jump(tag_71)\n    tag_70:\n      0x40\n      dup1\n      mload\n      swap2\n      iszero\n      iszero\n      dup3\n      mstore\n      mload\n      swap1\n      dup2\n      swap1\n      sub\n      0x20\n      add\n      swap1\n      return\n        /* \"contracts/RLC.sol\":3093:3346  function approveAndCall(address _spender, uint256 _value, bytes _extraData){... */\n    tag_16:\n      jumpi(tag_72, iszero(callvalue))\n      invalid\n    tag_72:\n      0x40\n      dup1\n      mload\n      0x20\n      0x4\n      calldataload(0x44)\n      dup2\n      dup2\n      add\n      calldataload\n      0x1f\n      dup2\n      add\n      dup5\n      swap1\n      div\n      dup5\n      mul\n      dup6\n      add\n      dup5\n      add\n      swap1\n      swap6\n      mstore\n      dup5\n      dup5\n      mstore\n      tag_73\n      swap5\n      dup3\n      calldataload\n      sub(exp(0x2, 0xa0), 0x1)\n      and\n      swap5\n      0x24\n      dup1\n      calldataload\n      swap6\n      0x64\n      swap5\n      swap3\n      swap4\n      swap2\n      swap1\n      swap3\n      add\n      swap2\n      dup2\n      swap1\n      dup5\n      add\n      dup4\n      dup3\n      dup1\n      dup3\n      dup5\n      calldatacopy\n      pop\n      swap5\n      swap7\n      pop\n      tag_74\n      swap6\n      pop\n      pop\n      pop\n      pop\n      pop\n      pop\n      jump\n    tag_73:\n      stop\n        /* \"contracts/RLC.sol\":431:449  bool public locked */\n    tag_17:\n      jumpi(tag_75, iszero(callvalue))\n      invalid\n    tag_75:\n      tag_28\n      jump(tag_77)\n    tag_76:\n      0x40\n      dup1\n      mload\n      swap2\n      iszero\n      iszero\n      dup3\n      mstore\n      mload\n      swap1\n      dup2\n      swap1\n      sub\n      0x20\n      add\n      swap1\n      return\n        /* \"contracts/RLC.sol\":3350:3480  function allowance(address _owner, address _spender) constant returns (uint remaining) {... */\n    tag_18:\n      jumpi(tag_78, iszero(callvalue))\n      invalid\n    tag_78:\n      tag_34\n      sub(exp(0x2, 0xa0), 0x1)\n      calldataload(0x4)\n      dup2\n      and\n      swap1\n      calldataload(0x24)\n      and\n      jump(tag_80)\n    tag_79:\n      0x40\n      dup1\n      mload\n      swap2\n      dup3\n      mstore\n      mload\n      swap1\n      dup2\n      swap1\n      sub\n      0x20\n      add\n      swap1\n      return\n        /* \"contracts/RLC.sol\":1665:1907  function forceBurn(address _toburn,uint256 _value) onlyOwner returns (bool){... */\n    tag_19:\n      jumpi(tag_81, iszero(callvalue))\n      invalid\n    tag_81:\n      tag_28\n      and(calldataload(0x4), sub(exp(0x2, 0xa0), 0x1))\n      calldataload(0x24)\n      jump(tag_83)\n    tag_82:\n      0x40\n      dup1\n      mload\n      swap2\n      iszero\n      iszero\n      dup3\n      mstore\n      mload\n      swap1\n      dup2\n      swap1\n      sub\n      0x20\n      add\n      swap1\n      return\n        /* \"contracts/Ownable.sol\":199:309  function transferOwnership(address newOwner) onlyOwner {... */\n    tag_20:\n      jumpi(tag_84, iszero(callvalue))\n      invalid\n    tag_84:\n      tag_73\n      and(calldataload(0x4), sub(exp(0x2, 0xa0), 0x1))\n      jump(tag_86)\n    tag_85:\n      stop\n        /* \"contracts/RLC.sol\":219:237  string public name */\n    tag_23:\n      0x2\n      dup1\n      sload\n      0x40\n      dup1\n      mload\n      0x20\n      0x1\n      dup5\n      and\n      iszero\n      0x100\n      mul\n      not(0x0)\n      add\n      swap1\n      swap4\n      and\n      dup5\n      swap1\n      div\n      0x1f\n      dup2\n      add\n      dup5\n      swap1\n      div\n      dup5\n      mul\n      dup3\n      add\n      dup5\n      add\n      swap1\n      swap3\n      mstore\n      dup2\n      dup2\n      mstore\n      swap3\n      swap2\n      dup4\n      add\n      dup3\n      dup3\n      dup1\n      iszero\n      tag_87\n      jumpi\n      dup1\n      0x1f\n      lt\n      tag_88\n      jumpi\n      0x100\n      dup1\n      dup4\n      sload\n      div\n      mul\n      dup4\n      mstore\n      swap2\n      0x20\n      add\n      swap2\n      jump(tag_87)\n    tag_88:\n      dup3\n      add\n      swap2\n      swap1\n      0x0\n      mstore\n      sha3(0x0, 0x20)\n      swap1\n    tag_89:\n      dup2\n      sload\n      dup2\n      mstore\n      swap1\n      0x1\n      add\n      swap1\n      0x20\n      add\n      dup1\n      dup4\n      gt\n      tag_89\n      jumpi\n      dup3\n      swap1\n      sub\n      0x1f\n      and\n      dup3\n      add\n      swap2\n    tag_87:\n      pop\n      pop\n      pop\n      pop\n      pop\n      dup2\n      jump\t// out\n        /* \"contracts/RLC.sol\":2841:3014  function approve(address _spender, uint _value) returns (bool) {... */\n    tag_29:\n      sub(exp(0x2, 0xa0), 0x1)\n        /* \"contracts/RLC.sol\":2918:2928  msg.sender */\n      caller\n        /* \"contracts/RLC.sol\":2910:2929  allowed[msg.sender] */\n      dup2\n      and\n        /* \"contracts/RLC.sol\":2898:2902  bool */\n      0x0\n        /* \"contracts/RLC.sol\":2910:2929  allowed[msg.sender] */\n      dup2\n      dup2\n      mstore\n        /* \"contracts/RLC.sol\":2910:2917  allowed */\n      0xa\n        /* \"contracts/RLC.sol\":2910:2929  allowed[msg.sender] */\n      0x20\n      swap1\n      dup2\n      mstore\n      0x40\n      dup1\n      dup4\n      sha3\n        /* \"contracts/RLC.sol\":2910:2939  allowed[msg.sender][_spender] */\n      swap5\n      dup8\n      and\n      dup1\n      dup5\n      mstore\n      swap5\n      dup3\n      mstore\n      dup1\n      dup4\n      sha3\n        /* \"contracts/RLC.sol\":2910:2948  allowed[msg.sender][_spender] = _value */\n      dup7\n      swap1\n      sstore\n        /* \"contracts/RLC.sol\":2954:2992  Approval(msg.sender, _spender, _value) */\n      dup1\n      mload\n      dup7\n      dup2\n      mstore\n      swap1\n      mload\n        /* \"contracts/RLC.sol\":2898:2902  bool */\n      swap3\n      swap5\n        /* \"contracts/RLC.sol\":2910:2939  allowed[msg.sender][_spender] */\n      swap4\n        /* \"contracts/RLC.sol\":2910:2929  allowed[msg.sender] */\n      swap3\n        /* \"contracts/RLC.sol\":2954:2992  Approval(msg.sender, _spender, _value) */\n      0x8c5be1e5ebec7d5bd14f71427d1e84f3dd0314c0f7b2291e5b200ac8c7c3b925\n      swap3\n      swap2\n      dup2\n      swap1\n      sub\n      swap1\n      swap2\n      add\n      swap1\n      log3\n      pop\n        /* \"contracts/RLC.sol\":3005:3009  true */\n      0x1\n        /* \"contracts/RLC.sol\":2841:3014  function approve(address _spender, uint _value) returns (bool) {... */\n    tag_90:\n      swap3\n      swap2\n      pop\n      pop\n      jump\t// out\n        /* \"contracts/RLC.sol\":1133:1361  function refill(address _to, uint _value) onlyOwner returns (bool) {... */\n    tag_32:\n        /* \"contracts/Ownable.sol\":176:181  owner */\n      sload(0x1)\n        /* \"contracts/RLC.sol\":1194:1198  bool */\n      0x0\n      swap1\n        /* \"contracts/Ownable.sol\":162:172  msg.sender */\n      caller\n      sub(exp(0x2, 0xa0), 0x1)\n        /* \"contracts/Ownable.sol\":162:181  msg.sender == owner */\n      swap1\n      dup2\n      and\n        /* \"contracts/Ownable.sol\":176:181  owner */\n      swap2\n      and\n        /* \"contracts/Ownable.sol\":162:181  msg.sender == owner */\n      eq\n        /* \"contracts/Ownable.sol\":158:190  if (msg.sender == owner)... */\n      iszero\n      tag_90\n      jumpi\n      sub(exp(0x2, 0xa0), 0x1)\n        /* \"contracts/RLC.sol\":1230:1243  balances[_to] */\n      dup4\n      and\n      0x0\n      swap1\n      dup2\n      mstore\n        /* \"contracts/RLC.sol\":1230:1238  balances */\n      0x9\n        /* \"contracts/RLC.sol\":1230:1243  balances[_to] */\n      0x20\n      mstore\n      0x40\n      swap1\n      sha3\n      sload\n        /* \"contracts/RLC.sol\":1222:1252  safeAdd(balances[_to], _value) */\n      tag_94\n      swap1\n        /* \"contracts/RLC.sol\":1245:1251  _value */\n      dup4\n        /* \"contracts/RLC.sol\":1222:1229  safeAdd */\n      tag_95\n        /* \"contracts/RLC.sol\":1222:1252  safeAdd(balances[_to], _value) */\n      jump\t// in\n    tag_94:\n      sub(exp(0x2, 0xa0), 0x1)\n        /* \"contracts/RLC.sol\":1206:1219  balances[_to] */\n      dup5\n      and\n      0x0\n      swap1\n      dup2\n      mstore\n        /* \"contracts/RLC.sol\":1206:1214  balances */\n      0x9\n        /* \"contracts/RLC.sol\":1206:1219  balances[_to] */\n      0x20\n      mstore\n      0x40\n      swap1\n      sha3\n        /* \"contracts/RLC.sol\":1206:1252  balances[_to] = safeAdd(balances[_to], _value) */\n      sstore\n        /* \"contracts/RLC.sol\":1280:1291  totalSupply */\n      sload(0x7)\n        /* \"contracts/RLC.sol\":1272:1300  safeAdd(totalSupply, _value) */\n      tag_96\n      swap1\n        /* \"contracts/RLC.sol\":1293:1299  _value */\n      dup4\n        /* \"contracts/RLC.sol\":1272:1279  safeAdd */\n      tag_95\n        /* \"contracts/RLC.sol\":1272:1300  safeAdd(totalSupply, _value) */\n      jump\t// in\n    tag_96:\n        /* \"contracts/RLC.sol\":1258:1269  totalSupply */\n      0x7\n        /* \"contracts/RLC.sol\":1258:1300  totalSupply = safeAdd(totalSupply, _value) */\n      sstore\n        /* \"contracts/RLC.sol\":1306:1339  Transfer(msg.sender, _to, _value) */\n      0x40\n      dup1\n      mload\n      dup4\n      dup2\n      mstore\n      swap1\n      mload\n      sub(exp(0x2, 0xa0), 0x1)\n      dup1\n      dup7\n      and\n      swap3\n        /* \"contracts/RLC.sol\":1315:1325  msg.sender */\n      caller\n        /* \"contracts/RLC.sol\":1306:1339  Transfer(msg.sender, _to, _value) */\n      swap1\n      swap2\n      and\n      swap2\n      0xddf252ad1be2c89b69c2b068fc378daa952ba7f163c4a11628f55a4df523b3ef\n      swap2\n      dup2\n      swap1\n      sub\n      0x20\n      add\n      swap1\n      log3\n      pop\n        /* \"contracts/RLC.sol\":1352:1356  true */\n      0x1\n        /* \"contracts/Ownable.sol\":189:190  _ */\n    tag_93:\n        /* \"contracts/Ownable.sol\":158:190  if (msg.sender == owner)... */\n    tag_92:\n        /* \"contracts/RLC.sol\":1133:1361  function refill(address _to, uint _value) onlyOwner returns (bool) {... */\n    tag_91:\n      swap3\n      swap2\n      pop\n      pop\n      jump\t// out\n        /* \"contracts/RLC.sol\":404:427  uint public totalSupply */\n    tag_35:\n      sload(0x7)\n      dup2\n      jump\t// out\n        /* \"contracts/RLC.sol\":2378:2732  function transferFrom(address _from, address _to, uint _value) returns (bool) {... */\n    tag_38:\n      sub(exp(0x2, 0xa0), 0x1)\n        /* \"contracts/RLC.sol\":2479:2493  allowed[_from] */\n      dup1\n      dup5\n      and\n        /* \"contracts/RLC.sol\":2450:2454  bool */\n      0x0\n        /* \"contracts/RLC.sol\":2479:2493  allowed[_from] */\n      swap1\n      dup2\n      mstore\n        /* \"contracts/RLC.sol\":2479:2486  allowed */\n      0xa\n        /* \"contracts/RLC.sol\":2479:2493  allowed[_from] */\n      0x20\n      swap1\n      dup2\n      mstore\n      0x40\n      dup1\n      dup4\n      sha3\n        /* \"contracts/RLC.sol\":2494:2504  msg.sender */\n      caller\n        /* \"contracts/RLC.sol\":2479:2505  allowed[_from][msg.sender] */\n      dup6\n      and\n      dup5\n      mstore\n      dup3\n      mstore\n      dup1\n      dup4\n      sha3\n      sload\n        /* \"contracts/RLC.sol\":2536:2549  balances[_to] */\n      swap4\n      dup7\n      and\n      dup4\n      mstore\n        /* \"contracts/RLC.sol\":2536:2544  balances */\n      0x9\n        /* \"contracts/RLC.sol\":2536:2549  balances[_to] */\n      swap1\n      swap2\n      mstore\n      dup2\n      sha3\n      sload\n        /* \"contracts/RLC.sol\":2450:2454  bool */\n      swap1\n      swap2\n        /* \"contracts/RLC.sol\":2479:2505  allowed[_from][msg.sender] */\n      swap1\n        /* \"contracts/RLC.sol\":2528:2558  safeAdd(balances[_to], _value) */\n      tag_98\n      swap1\n        /* \"contracts/RLC.sol\":2551:2557  _value */\n      dup5\n        /* \"contracts/RLC.sol\":2528:2535  safeAdd */\n      tag_95\n        /* \"contracts/RLC.sol\":2528:2558  safeAdd(balances[_to], _value) */\n      jump\t// in\n    tag_98:\n      sub(exp(0x2, 0xa0), 0x1)\n        /* \"contracts/RLC.sol\":2512:2525  balances[_to] */\n      dup1\n      dup7\n      and\n      0x0\n      swap1\n      dup2\n      mstore\n        /* \"contracts/RLC.sol\":2512:2520  balances */\n      0x9\n        /* \"contracts/RLC.sol\":2512:2525  balances[_to] */\n      0x20\n      mstore\n      0x40\n      dup1\n      dup3\n      sha3\n        /* \"contracts/RLC.sol\":2512:2558  balances[_to] = safeAdd(balances[_to], _value) */\n      swap4\n      swap1\n      swap4\n      sstore\n        /* \"contracts/RLC.sol\":2590:2605  balances[_from] */\n      swap1\n      dup8\n      and\n      dup2\n      mstore\n      sha3\n      sload\n        /* \"contracts/RLC.sol\":2582:2614  safeSub(balances[_from], _value) */\n      tag_99\n      swap1\n        /* \"contracts/RLC.sol\":2607:2613  _value */\n      dup5\n        /* \"contracts/RLC.sol\":2582:2589  safeSub */\n      tag_100\n        /* \"contracts/RLC.sol\":2582:2614  safeSub(balances[_from], _value) */\n      jump\t// in\n    tag_99:\n      sub(exp(0x2, 0xa0), 0x1)\n        /* \"contracts/RLC.sol\":2564:2579  balances[_from] */\n      dup7\n      and\n      0x0\n      swap1\n      dup2\n      mstore\n        /* \"contracts/RLC.sol\":2564:2572  balances */\n      0x9\n        /* \"contracts/RLC.sol\":2564:2579  balances[_from] */\n      0x20\n      mstore\n      0x40\n      swap1\n      sha3\n        /* \"contracts/RLC.sol\":2564:2614  balances[_from] = safeSub(balances[_from], _value) */\n      sstore\n        /* \"contracts/RLC.sol\":2649:2676  safeSub(_allowance, _value) */\n      tag_101\n        /* \"contracts/RLC.sol\":2657:2667  _allowance */\n      dup2\n        /* \"contracts/RLC.sol\":2669:2675  _value */\n      dup5\n        /* \"contracts/RLC.sol\":2649:2656  safeSub */\n      tag_100\n        /* \"contracts/RLC.sol\":2649:2676  safeSub(_allowance, _value) */\n      jump\t// in\n    tag_101:\n      sub(exp(0x2, 0xa0), 0x1)\n        /* \"contracts/RLC.sol\":2620:2634  allowed[_from] */\n      dup1\n      dup8\n      and\n      0x0\n      dup2\n      dup2\n      mstore\n        /* \"contracts/RLC.sol\":2620:2627  allowed */\n      0xa\n        /* \"contracts/RLC.sol\":2620:2634  allowed[_from] */\n      0x20\n      swap1\n      dup2\n      mstore\n      0x40\n      dup1\n      dup4\n      sha3\n        /* \"contracts/RLC.sol\":2635:2645  msg.sender */\n      caller\n        /* \"contracts/RLC.sol\":2620:2646  allowed[_from][msg.sender] */\n      dup7\n      and\n      dup5\n      mstore\n      dup3\n      mstore\n      swap2\n      dup3\n      swap1\n      sha3\n        /* \"contracts/RLC.sol\":2620:2676  allowed[_from][msg.sender] = safeSub(_allowance, _value) */\n      swap5\n      swap1\n      swap5\n      sstore\n        /* \"contracts/RLC.sol\":2682:2710  Transfer(_from, _to, _value) */\n      dup1\n      mload\n      dup8\n      dup2\n      mstore\n      swap1\n      mload\n      swap3\n      dup9\n      and\n      swap4\n        /* \"contracts/RLC.sol\":2620:2634  allowed[_from] */\n      swap2\n      swap3\n        /* \"contracts/RLC.sol\":2682:2710  Transfer(_from, _to, _value) */\n      0xddf252ad1be2c89b69c2b068fc378daa952ba7f163c4a11628f55a4df523b3ef\n      swap3\n      swap2\n      dup2\n      swap1\n      sub\n      swap1\n      swap2\n      add\n      swap1\n      log3\n        /* \"contracts/RLC.sol\":2723:2727  true */\n      0x1\n        /* \"contracts/RLC.sol\":2716:2727  return true */\n      swap2\n      pop\n        /* \"contracts/RLC.sol\":2378:2732  function transferFrom(address _from, address _to, uint _value) returns (bool) {... */\n    tag_97:\n      pop\n      swap4\n      swap3\n      pop\n      pop\n      pop\n      jump\t// out\n        /* \"contracts/RLC.sol\":284:305  uint8 public decimals */\n    tag_41:\n      and(0xff, sload(0x4))\n      dup2\n      jump\t// out\n        /* \"contracts/RLC.sol\":375:400  uint public initialSupply */\n    tag_44:\n      sload(0x6)\n      dup2\n      jump\t// out\n        /* \"contracts/RLC.sol\":1912:2132  function burn(uint256 _value) returns (bool){... */\n    tag_47:\n      sub(exp(0x2, 0xa0), 0x1)\n        /* \"contracts/RLC.sol\":2002:2012  msg.sender */\n      caller\n        /* \"contracts/RLC.sol\":1993:2013  balances[msg.sender] */\n      and\n        /* \"contracts/RLC.sol\":1951:1955  bool */\n      0x0\n        /* \"contracts/RLC.sol\":1993:2013  balances[msg.sender] */\n      swap1\n      dup2\n      mstore\n        /* \"contracts/RLC.sol\":1993:2001  balances */\n      0x9\n        /* \"contracts/RLC.sol\":1993:2013  balances[msg.sender] */\n      0x20\n      mstore\n      0x40\n      dup2\n      sha3\n      sload\n        /* \"contracts/RLC.sol\":1985:2022  safeSub(balances[msg.sender], _value) */\n      tag_103\n      swap1\n        /* \"contracts/RLC.sol\":2015:2021  _value */\n      dup4\n        /* \"contracts/RLC.sol\":1985:1992  safeSub */\n      tag_100\n        /* \"contracts/RLC.sol\":1985:2022  safeSub(balances[msg.sender], _value) */\n      jump\t// in\n    tag_103:\n      sub(exp(0x2, 0xa0), 0x1)\n        /* \"contracts/RLC.sol\":1971:1981  msg.sender */\n      caller\n        /* \"contracts/RLC.sol\":1962:1982  balances[msg.sender] */\n      and\n      0x0\n      swap1\n      dup2\n      mstore\n        /* \"contracts/RLC.sol\":1962:1970  balances */\n      0x9\n        /* \"contracts/RLC.sol\":1962:1982  balances[msg.sender] */\n      0x20\n      mstore\n      0x40\n      swap1\n      sha3\n        /* \"contracts/RLC.sol\":1962:2022  balances[msg.sender] = safeSub(balances[msg.sender], _value) */\n      sstore\n        /* \"contracts/RLC.sol\":2051:2062  totalSupply */\n      sload(0x7)\n        /* \"contracts/RLC.sol\":2043:2071  safeSub(totalSupply, _value) */\n      tag_104\n      swap1\n        /* \"contracts/RLC.sol\":2064:2070  _value */\n      dup4\n        /* \"contracts/RLC.sol\":2043:2050  safeSub */\n      tag_100\n        /* \"contracts/RLC.sol\":2043:2071  safeSub(totalSupply, _value) */\n      jump\t// in\n    tag_104:\n        /* \"contracts/RLC.sol\":2029:2040  totalSupply */\n      0x7\n        /* \"contracts/RLC.sol\":2029:2071  totalSupply = safeSub(totalSupply, _value) */\n      sstore\n        /* \"contracts/RLC.sol\":2077:2110  Transfer(msg.sender, 0x0, _value) */\n      0x40\n      dup1\n      mload\n      dup4\n      dup2\n      mstore\n      swap1\n      mload\n        /* \"contracts/RLC.sol\":2098:2101  0x0 */\n      0x0\n      swap2\n      sub(exp(0x2, 0xa0), 0x1)\n        /* \"contracts/RLC.sol\":2086:2096  msg.sender */\n      caller\n        /* \"contracts/RLC.sol\":2077:2110  Transfer(msg.sender, 0x0, _value) */\n      and\n      swap2\n      0xddf252ad1be2c89b69c2b068fc378daa952ba7f163c4a11628f55a4df523b3ef\n      swap2\n      dup2\n      swap1\n      sub\n      0x20\n      add\n      swap1\n      log3\n      pop\n        /* \"contracts/RLC.sol\":2123:2127  true */\n      0x1\n        /* \"contracts/RLC.sol\":1912:2132  function burn(uint256 _value) returns (bool){... */\n    tag_102:\n      swap2\n      swap1\n      pop\n      jump\t// out\n        /* \"contracts/RLC.sol\":341:371  string public version = 'v0.1' */\n    tag_50:\n      0x5\n      dup1\n      sload\n      0x40\n      dup1\n      mload\n      0x20\n      0x2\n      0x1\n      dup6\n      and\n      iszero\n      0x100\n      mul\n      not(0x0)\n      add\n      swap1\n      swap5\n      and\n      swap4\n      swap1\n      swap4\n      div\n      0x1f\n      dup2\n      add\n      dup5\n      swap1\n      div\n      dup5\n      mul\n      dup3\n      add\n      dup5\n      add\n      swap1\n      swap3\n      mstore\n      dup2\n      dup2\n      mstore\n      swap3\n      swap2\n      dup4\n      add\n      dup3\n      dup3\n      dup1\n      iszero\n      tag_87\n      jumpi\n      dup1\n      0x1f\n      lt\n      tag_88\n      jumpi\n      0x100\n      dup1\n      dup4\n      sload\n      div\n      mul\n      dup4\n      mstore\n      swap2\n      0x20\n      add\n      swap2\n      jump(tag_87)\n    tag_106:\n      dup3\n      add\n      swap2\n      swap1\n      0x0\n      mstore\n      sha3(0x0, 0x20)\n      swap1\n    tag_107:\n      dup2\n      sload\n      dup2\n      mstore\n      swap1\n      0x1\n      add\n      swap1\n      0x20\n      add\n      dup1\n      dup4\n      gt\n      tag_89\n      jumpi\n      dup3\n      swap1\n      sub\n      0x1f\n      and\n      dup3\n      add\n      swap2\n    tag_105:\n      pop\n      pop\n      pop\n      pop\n      pop\n      dup2\n      jump\t// out\n        /* \"contracts/RLC.sol\":1415:1611  function forceApprove(address _giver, address _spender, uint _value) onlyOwner returns (bool) {... */\n    tag_56:\n        /* \"contracts/Ownable.sol\":176:181  owner */\n      sload(0x1)\n        /* \"contracts/RLC.sol\":1503:1507  bool */\n      0x0\n      swap1\n        /* \"contracts/Ownable.sol\":162:172  msg.sender */\n      caller\n      sub(exp(0x2, 0xa0), 0x1)\n        /* \"contracts/Ownable.sol\":162:181  msg.sender == owner */\n      swap1\n      dup2\n      and\n        /* \"contracts/Ownable.sol\":176:181  owner */\n      swap2\n      and\n        /* \"contracts/Ownable.sol\":162:181  msg.sender == owner */\n      eq\n        /* \"contracts/Ownable.sol\":158:190  if (msg.sender == owner)... */\n      iszero\n      tag_110\n      jumpi\n      sub(exp(0x2, 0xa0), 0x1)\n        /* \"contracts/RLC.sol\":1515:1530  allowed[_giver] */\n      dup1\n      dup6\n      and\n      0x0\n      dup2\n      dup2\n      mstore\n        /* \"contracts/RLC.sol\":1515:1522  allowed */\n      0xa\n        /* \"contracts/RLC.sol\":1515:1530  allowed[_giver] */\n      0x20\n      swap1\n      dup2\n      mstore\n      0x40\n      dup1\n      dup4\n      sha3\n        /* \"contracts/RLC.sol\":1515:1540  allowed[_giver][_spender] */\n      swap5\n      dup9\n      and\n      dup1\n      dup5\n      mstore\n      swap5\n      dup3\n      mstore\n      swap2\n      dup3\n      swap1\n      sha3\n        /* \"contracts/RLC.sol\":1515:1549  allowed[_giver][_spender] = _value */\n      dup7\n      swap1\n      sstore\n        /* \"contracts/RLC.sol\":1555:1589  Approval(_giver, _spender, _value) */\n      dup2\n      mload\n      dup7\n      dup2\n      mstore\n      swap2\n      mload\n      0x8c5be1e5ebec7d5bd14f71427d1e84f3dd0314c0f7b2291e5b200ac8c7c3b925\n      swap3\n      dup2\n      swap1\n      sub\n      swap1\n      swap2\n      add\n      swap1\n      log3\n      pop\n        /* \"contracts/RLC.sol\":1602:1606  true */\n      0x1\n        /* \"contracts/Ownable.sol\":189:190  _ */\n    tag_110:\n        /* \"contracts/Ownable.sol\":158:190  if (msg.sender == owner)... */\n    tag_109:\n        /* \"contracts/RLC.sol\":1415:1611  function forceApprove(address _giver, address _spender, uint _value) onlyOwner returns (bool) {... */\n    tag_108:\n      swap4\n      swap3\n      pop\n      pop\n      pop\n      jump\t// out\n        /* \"contracts/RLC.sol\":2736:2837  function balanceOf(address _owner) constant returns (uint balance) {... */\n    tag_59:\n      sub(exp(0x2, 0xa0), 0x1)\n        /* \"contracts/RLC.sol\":2816:2832  balances[_owner] */\n      dup2\n      and\n        /* \"contracts/RLC.sol\":2789:2801  uint balance */\n      0x0\n        /* \"contracts/RLC.sol\":2816:2832  balances[_owner] */\n      swap1\n      dup2\n      mstore\n        /* \"contracts/RLC.sol\":2816:2824  balances */\n      0x9\n        /* \"contracts/RLC.sol\":2816:2832  balances[_owner] */\n      0x20\n      mstore\n      0x40\n      swap1\n      sha3\n      sload\n        /* \"contracts/RLC.sol\":2736:2837  function balanceOf(address _owner) constant returns (uint balance) {... */\n    tag_111:\n      swap2\n      swap1\n      pop\n      jump\t// out\n        /* \"contracts/Ownable.sol\":54:74  address public owner */\n    tag_62:\n      and(sub(exp(0x2, 0xa0), 0x1), sload(0x1))\n      dup2\n      jump\t// out\n        /* \"contracts/RLC.sol\":260:280  string public symbol */\n    tag_65:\n      0x3\n      dup1\n      sload\n      0x40\n      dup1\n      mload\n      0x20\n      0x2\n      0x1\n      dup6\n      and\n      iszero\n      0x100\n      mul\n      not(0x0)\n      add\n      swap1\n      swap5\n      and\n      swap4\n      swap1\n      swap4\n      div\n      0x1f\n      dup2\n      add\n      dup5\n      swap1\n      div\n      dup5\n      mul\n      dup3\n      add\n      dup5\n      add\n      swap1\n      swap3\n      mstore\n      dup2\n      dup2\n      mstore\n      swap3\n      swap2\n      dup4\n      add\n      dup3\n      dup3\n      dup1\n      iszero\n      tag_87\n      jumpi\n      dup1\n      0x1f\n      lt\n      tag_88\n      jumpi\n      0x100\n      dup1\n      dup4\n      sload\n      div\n      mul\n      dup4\n      mstore\n      swap2\n      0x20\n      add\n      swap2\n      jump(tag_87)\n    tag_113:\n      dup3\n      add\n      swap2\n      swap1\n      0x0\n      mstore\n      sha3(0x0, 0x20)\n      swap1\n    tag_114:\n      dup2\n      sload\n      dup2\n      mstore\n      swap1\n      0x1\n      add\n      swap1\n      0x20\n      add\n      dup1\n      dup4\n      gt\n      tag_89\n      jumpi\n      dup3\n      swap1\n      sub\n      0x1f\n      and\n      dup3\n      add\n      swap2\n    tag_112:\n      pop\n      pop\n      pop\n      pop\n      pop\n      dup2\n      jump\t// out\n        /* \"contracts/RLC.sol\":2136:2374  function transfer(address _to, uint _value) returns (bool) {... */\n    tag_71:\n      sub(exp(0x2, 0xa0), 0x1)\n        /* \"contracts/RLC.sol\":2241:2251  msg.sender */\n      caller\n        /* \"contracts/RLC.sol\":2232:2252  balances[msg.sender] */\n      and\n        /* \"contracts/RLC.sol\":2189:2193  bool */\n      0x0\n        /* \"contracts/RLC.sol\":2232:2252  balances[msg.sender] */\n      swap1\n      dup2\n      mstore\n        /* \"contracts/RLC.sol\":2232:2240  balances */\n      0x9\n        /* \"contracts/RLC.sol\":2232:2252  balances[msg.sender] */\n      0x20\n      mstore\n      0x40\n      dup2\n      sha3\n      sload\n        /* \"contracts/RLC.sol\":2224:2261  safeSub(balances[msg.sender], _value) */\n      tag_116\n      swap1\n        /* \"contracts/RLC.sol\":2254:2260  _value */\n      dup4\n        /* \"contracts/RLC.sol\":2224:2231  safeSub */\n      tag_100\n        /* \"contracts/RLC.sol\":2224:2261  safeSub(balances[msg.sender], _value) */\n      jump\t// in\n    tag_116:\n      sub(exp(0x2, 0xa0), 0x1)\n        /* \"contracts/RLC.sol\":2210:2220  msg.sender */\n      caller\n        /* \"contracts/RLC.sol\":2201:2221  balances[msg.sender] */\n      dup2\n      and\n      0x0\n      swap1\n      dup2\n      mstore\n        /* \"contracts/RLC.sol\":2201:2209  balances */\n      0x9\n        /* \"contracts/RLC.sol\":2201:2221  balances[msg.sender] */\n      0x20\n      mstore\n      0x40\n      dup1\n      dup3\n      sha3\n        /* \"contracts/RLC.sol\":2201:2261  balances[msg.sender] = safeSub(balances[msg.sender], _value) */\n      swap4\n      swap1\n      swap4\n      sstore\n        /* \"contracts/RLC.sol\":2291:2304  balances[_to] */\n      swap1\n      dup6\n      and\n      dup2\n      mstore\n      sha3\n      sload\n        /* \"contracts/RLC.sol\":2283:2313  safeAdd(balances[_to], _value) */\n      tag_117\n      swap1\n        /* \"contracts/RLC.sol\":2306:2312  _value */\n      dup4\n        /* \"contracts/RLC.sol\":2283:2290  safeAdd */\n      tag_95\n        /* \"contracts/RLC.sol\":2283:2313  safeAdd(balances[_to], _value) */\n      jump\t// in\n    tag_117:\n      sub(exp(0x2, 0xa0), 0x1)\n        /* \"contracts/RLC.sol\":2267:2280  balances[_to] */\n      dup1\n      dup6\n      and\n      0x0\n      dup2\n      dup2\n      mstore\n        /* \"contracts/RLC.sol\":2267:2275  balances */\n      0x9\n        /* \"contracts/RLC.sol\":2267:2280  balances[_to] */\n      0x20\n      swap1\n      dup2\n      mstore\n      0x40\n      swap2\n      dup3\n      swap1\n      sha3\n        /* \"contracts/RLC.sol\":2267:2313  balances[_to] = safeAdd(balances[_to], _value) */\n      swap5\n      swap1\n      swap5\n      sstore\n        /* \"contracts/RLC.sol\":2319:2352  Transfer(msg.sender, _to, _value) */\n      dup1\n      mload\n      dup7\n      dup2\n      mstore\n      swap1\n      mload\n        /* \"contracts/RLC.sol\":2267:2280  balances[_to] */\n      swap2\n      swap4\n        /* \"contracts/RLC.sol\":2328:2338  msg.sender */\n      caller\n        /* \"contracts/RLC.sol\":2319:2352  Transfer(msg.sender, _to, _value) */\n      swap1\n      swap4\n      and\n      swap3\n      0xddf252ad1be2c89b69c2b068fc378daa952ba7f163c4a11628f55a4df523b3ef\n      swap3\n      swap2\n      dup3\n      swap1\n      sub\n      add\n      swap1\n      log3\n      pop\n        /* \"contracts/RLC.sol\":2365:2369  true */\n      0x1\n        /* \"contracts/RLC.sol\":2136:2374  function transfer(address _to, uint _value) returns (bool) {... */\n    tag_115:\n      swap3\n      swap2\n      pop\n      pop\n      jump\t// out\n        /* \"contracts/RLC.sol\":3093:3346  function approveAndCall(address _spender, uint256 _value, bytes _extraData){... */\n    tag_74:\n        /* \"contracts/RLC.sol\":3212:3220  _spender */\n      dup3\n        /* \"contracts/RLC.sol\":3233:3258  approve(_spender, _value) */\n      tag_119\n        /* \"contracts/RLC.sol\":3212:3220  _spender */\n      dup2\n        /* \"contracts/RLC.sol\":3251:3257  _value */\n      dup5\n        /* \"contracts/RLC.sol\":3233:3240  approve */\n      tag_29\n        /* \"contracts/RLC.sol\":3233:3258  approve(_spender, _value) */\n      jump\t// in\n    tag_119:\n        /* \"contracts/RLC.sol\":3229:3342  if (approve(_spender, _value)) {... */\n      iszero\n      tag_120\n      jumpi\n        /* \"contracts/RLC.sol\":3272:3279  spender */\n      dup1\n      sub(exp(0x2, 0xa0), 0x1)\n        /* \"contracts/RLC.sol\":3272:3295  spender.receiveApproval */\n      and\n      0x8f4ffcb1\n        /* \"contracts/RLC.sol\":3296:3306  msg.sender */\n      caller\n        /* \"contracts/RLC.sol\":3308:3314  _value */\n      dup6\n        /* \"contracts/RLC.sol\":3316:3320  this */\n      address\n        /* \"contracts/RLC.sol\":3322:3332  _extraData */\n      dup7\n        /* \"contracts/RLC.sol\":3272:3333  spender.receiveApproval(msg.sender, _value, this, _extraData) */\n      mload(0x40)\n      dup6\n      0xffffffff\n      and\n      0x100000000000000000000000000000000000000000000000000000000\n      mul\n      dup2\n      mstore\n      0x4\n      add\n      dup1\n      dup6\n      sub(exp(0x2, 0xa0), 0x1)\n      and\n      sub(exp(0x2, 0xa0), 0x1)\n      and\n      dup2\n      mstore\n      0x20\n      add\n      dup5\n      dup2\n      mstore\n      0x20\n      add\n      dup4\n      sub(exp(0x2, 0xa0), 0x1)\n      and\n      sub(exp(0x2, 0xa0), 0x1)\n      and\n      dup2\n      mstore\n      0x20\n      add\n      dup1\n      0x20\n      add\n      dup3\n      dup2\n      sub\n      dup3\n      mstore\n      dup4\n      dup2\n      dup2\n      mload\n      dup2\n      mstore\n      0x20\n      add\n      swap2\n      pop\n      dup1\n      mload\n      swap1\n      0x20\n      add\n      swap1\n      dup1\n      dup4\n      dup4\n        /* \"--CODEGEN--\":26:27   */\n      0x0\n        /* \"--CODEGEN--\":21:24   */\n      dup4\n        /* \"--CODEGEN--\":18:20   */\n      eq\n        /* \"--CODEGEN--\":13:16   */\n      tag_121\n        /* \"--CODEGEN--\":7:12   */\n      jumpi\n        /* \"--CODEGEN--\":32:37   */\n    tag_122:\n        /* \"--CODEGEN--\":59:62   */\n      dup1\n        /* \"--CODEGEN--\":53:58   */\n      mload\n        /* \"--CODEGEN--\":48:51   */\n      dup3\n        /* \"--CODEGEN--\":41:47   */\n      mstore\n        /* \"--CODEGEN--\":93:95   */\n      0x20\n        /* \"--CODEGEN--\":88:91   */\n      dup4\n        /* \"--CODEGEN--\":85:87   */\n      gt\n        /* \"--CODEGEN--\":78:84   */\n      iszero\n        /* \"--CODEGEN--\":73:76   */\n      tag_121\n        /* \"--CODEGEN--\":67:72   */\n      jumpi\n      not(0x1f)\n        /* \"--CODEGEN--\":152:155   */\n      swap1\n      swap3\n      add\n      swap2\n        /* \"--CODEGEN--\":117:119   */\n      0x20\n        /* \"--CODEGEN--\":108:111   */\n      swap2\n      dup3\n      add\n      swap2\n        /* \"--CODEGEN--\":130:133   */\n      add\n        /* \"--CODEGEN--\":172:177   */\n      tag_122\n        /* \"--CODEGEN--\":167:171   */\n      jump\n        /* \"--CODEGEN--\":181:184   */\n    tag_121:\n        /* \"--CODEGEN--\":3:189   */\n      pop\n      pop\n      pop\n      swap1\n      pop\n      swap1\n      dup2\n      add\n      swap1\n      0x1f\n      and\n      dup1\n      iszero\n      tag_123\n      jumpi\n      dup1\n      dup3\n      sub\n      dup1\n      mload\n      0x1\n      dup4\n      0x20\n      sub\n      0x100\n      exp\n      sub\n      not\n      and\n      dup2\n      mstore\n      0x20\n      add\n      swap2\n      pop\n    tag_123:\n      pop\n      swap6\n      pop\n      pop\n      pop\n      pop\n      pop\n      pop\n      0x0\n      mload(0x40)\n      dup1\n      dup4\n      sub\n      dup2\n      0x0\n      dup8\n      dup1\n      extcodesize\n      iszero\n      iszero\n      tag_124\n      jumpi\n      invalid\n    tag_124:\n      sub(gas, 0x2c6)\n      call\n      iszero\n      iszero\n      tag_125\n      jumpi\n      invalid\n    tag_125:\n      pop\n      pop\n      pop\n        /* \"contracts/RLC.sol\":3229:3342  if (approve(_spender, _value)) {... */\n    tag_120:\n        /* \"contracts/RLC.sol\":3093:3346  function approveAndCall(address _spender, uint256 _value, bytes _extraData){... */\n    tag_118:\n      pop\n      pop\n      pop\n      pop\n      jump\t// out\n        /* \"contracts/RLC.sol\":431:449  bool public locked */\n    tag_77:\n      and(0xff, sload(0x8))\n      dup2\n      jump\t// out\n        /* \"contracts/RLC.sol\":3350:3480  function allowance(address _owner, address _spender) constant returns (uint remaining) {... */\n    tag_80:\n      sub(exp(0x2, 0xa0), 0x1)\n        /* \"contracts/RLC.sol\":3450:3465  allowed[_owner] */\n      dup1\n      dup4\n      and\n        /* \"contracts/RLC.sol\":3421:3435  uint remaining */\n      0x0\n        /* \"contracts/RLC.sol\":3450:3465  allowed[_owner] */\n      swap1\n      dup2\n      mstore\n        /* \"contracts/RLC.sol\":3450:3457  allowed */\n      0xa\n        /* \"contracts/RLC.sol\":3450:3465  allowed[_owner] */\n      0x20\n      swap1\n      dup2\n      mstore\n      0x40\n      dup1\n      dup4\n      sha3\n        /* \"contracts/RLC.sol\":3450:3475  allowed[_owner][_spender] */\n      swap4\n      dup6\n      and\n      dup4\n      mstore\n      swap3\n      swap1\n      mstore\n      sha3\n      sload\n        /* \"contracts/RLC.sol\":3350:3480  function allowance(address _owner, address _spender) constant returns (uint remaining) {... */\n    tag_126:\n      swap3\n      swap2\n      pop\n      pop\n      jump\t// out\n        /* \"contracts/RLC.sol\":1665:1907  function forceBurn(address _toburn,uint256 _value) onlyOwner returns (bool){... */\n    tag_83:\n        /* \"contracts/Ownable.sol\":176:181  owner */\n      sload(0x1)\n        /* \"contracts/RLC.sol\":1735:1739  bool */\n      0x0\n      swap1\n        /* \"contracts/Ownable.sol\":162:172  msg.sender */\n      caller\n      sub(exp(0x2, 0xa0), 0x1)\n        /* \"contracts/Ownable.sol\":162:181  msg.sender == owner */\n      swap1\n      dup2\n      and\n        /* \"contracts/Ownable.sol\":176:181  owner */\n      swap2\n      and\n        /* \"contracts/Ownable.sol\":162:181  msg.sender == owner */\n      eq\n        /* \"contracts/Ownable.sol\":158:190  if (msg.sender == owner)... */\n      iszero\n      tag_90\n      jumpi\n      sub(exp(0x2, 0xa0), 0x1)\n        /* \"contracts/RLC.sol\":1774:1791  balances[_toburn] */\n      dup4\n      and\n      0x0\n      swap1\n      dup2\n      mstore\n        /* \"contracts/RLC.sol\":1774:1782  balances */\n      0x9\n        /* \"contracts/RLC.sol\":1774:1791  balances[_toburn] */\n      0x20\n      mstore\n      0x40\n      swap1\n      sha3\n      sload\n        /* \"contracts/RLC.sol\":1766:1800  safeSub(balances[_toburn], _value) */\n      tag_130\n      swap1\n        /* \"contracts/RLC.sol\":1793:1799  _value */\n      dup4\n        /* \"contracts/RLC.sol\":1766:1773  safeSub */\n      tag_100\n        /* \"contracts/RLC.sol\":1766:1800  safeSub(balances[_toburn], _value) */\n      jump\t// in\n    tag_130:\n      sub(exp(0x2, 0xa0), 0x1)\n        /* \"contracts/RLC.sol\":1746:1763  balances[_toburn] */\n      dup5\n      and\n      0x0\n      swap1\n      dup2\n      mstore\n        /* \"contracts/RLC.sol\":1746:1754  balances */\n      0x9\n        /* \"contracts/RLC.sol\":1746:1763  balances[_toburn] */\n      0x20\n      mstore\n      0x40\n      swap1\n      sha3\n        /* \"contracts/RLC.sol\":1746:1800  balances[_toburn] = safeSub(balances[_toburn], _value) */\n      sstore\n        /* \"contracts/RLC.sol\":1829:1840  totalSupply */\n      sload(0x7)\n        /* \"contracts/RLC.sol\":1821:1849  safeSub(totalSupply, _value) */\n      tag_131\n      swap1\n        /* \"contracts/RLC.sol\":1842:1848  _value */\n      dup4\n        /* \"contracts/RLC.sol\":1821:1828  safeSub */\n      tag_100\n        /* \"contracts/RLC.sol\":1821:1849  safeSub(totalSupply, _value) */\n      jump\t// in\n    tag_131:\n        /* \"contracts/RLC.sol\":1807:1818  totalSupply */\n      0x7\n        /* \"contracts/RLC.sol\":1807:1849  totalSupply = safeSub(totalSupply, _value) */\n      sstore\n        /* \"contracts/RLC.sol\":1855:1885  Transfer(_toburn, 0x0, _value) */\n      0x40\n      dup1\n      mload\n      dup4\n      dup2\n      mstore\n      swap1\n      mload\n        /* \"contracts/RLC.sol\":1873:1876  0x0 */\n      0x0\n      swap2\n      sub(exp(0x2, 0xa0), 0x1)\n        /* \"contracts/RLC.sol\":1855:1885  Transfer(_toburn, 0x0, _value) */\n      dup7\n      and\n      swap2\n      0xddf252ad1be2c89b69c2b068fc378daa952ba7f163c4a11628f55a4df523b3ef\n      swap2\n      dup2\n      swap1\n      sub\n      0x20\n      add\n      swap1\n      log3\n      pop\n        /* \"contracts/RLC.sol\":1898:1902  true */\n      0x1\n        /* \"contracts/Ownable.sol\":189:190  _ */\n    tag_129:\n        /* \"contracts/Ownable.sol\":158:190  if (msg.sender == owner)... */\n    tag_128:\n        /* \"contracts/RLC.sol\":1665:1907  function forceBurn(address _toburn,uint256 _value) onlyOwner returns (bool){... */\n    tag_127:\n      swap3\n      swap2\n      pop\n      pop\n      jump\t// out\n        /* \"contracts/Ownable.sol\":199:309  function transferOwnership(address newOwner) onlyOwner {... */\n    tag_86:\n        /* \"contracts/Ownable.sol\":176:181  owner */\n      sload(0x1)\n        /* \"contracts/Ownable.sol\":162:172  msg.sender */\n      caller\n      sub(exp(0x2, 0xa0), 0x1)\n        /* \"contracts/Ownable.sol\":162:181  msg.sender == owner */\n      swap1\n      dup2\n      and\n        /* \"contracts/Ownable.sol\":176:181  owner */\n      swap2\n      and\n        /* \"contracts/Ownable.sol\":162:181  msg.sender == owner */\n      eq\n        /* \"contracts/Ownable.sol\":158:190  if (msg.sender == owner)... */\n      iszero\n      tag_135\n      jumpi\n      sub(exp(0x2, 0xa0), 0x1)\n        /* \"contracts/Ownable.sol\":264:286  newOwner != address(0) */\n      dup2\n      and\n      iszero\n        /* \"contracts/Ownable.sol\":260:304  if (newOwner != address(0)) owner = newOwner */\n      tag_135\n      jumpi\n        /* \"contracts/Ownable.sol\":288:293  owner */\n      0x1\n        /* \"contracts/Ownable.sol\":288:304  owner = newOwner */\n      dup1\n      sload\n      0xffffffffffffffffffffffff0000000000000000000000000000000000000000\n      and\n      sub(exp(0x2, 0xa0), 0x1)\n      dup4\n      and\n      or\n      swap1\n      sstore\n        /* \"contracts/Ownable.sol\":260:304  if (newOwner != address(0)) owner = newOwner */\n    tag_135:\n        /* \"contracts/Ownable.sol\":189:190  _ */\n    tag_134:\n        /* \"contracts/Ownable.sol\":158:190  if (msg.sender == owner)... */\n    tag_133:\n        /* \"contracts/Ownable.sol\":199:309  function transferOwnership(address newOwner) onlyOwner {... */\n    tag_132:\n      pop\n      jump\t// out\n        /* \"contracts/SafeMath.sol\":444:566  function safeAdd(uint a, uint b) internal returns (uint) {... */\n    tag_95:\n        /* \"contracts/SafeMath.sol\":495:499  uint */\n      0x0\n        /* \"contracts/SafeMath.sol\":516:521  a + b */\n      dup3\n      dup3\n      add\n        /* \"contracts/SafeMath.sol\":527:547  assert(c>=a && c>=b) */\n      tag_137\n        /* \"contracts/SafeMath.sol\":534:538  c>=a */\n      dup5\n      dup3\n      lt\n      dup1\n      iszero\n      swap1\n        /* \"contracts/SafeMath.sol\":534:546  c>=a && c>=b */\n      tag_138\n      jumpi\n      pop\n        /* \"contracts/SafeMath.sol\":545:546  b */\n      dup4\n        /* \"contracts/SafeMath.sol\":542:543  c */\n      dup3\n        /* \"contracts/SafeMath.sol\":542:546  c>=b */\n      lt\n      iszero\n        /* \"contracts/SafeMath.sol\":534:546  c>=a && c>=b */\n    tag_138:\n        /* \"contracts/SafeMath.sol\":527:533  assert */\n      tag_139\n        /* \"contracts/SafeMath.sol\":527:547  assert(c>=a && c>=b) */\n      jump\t// in\n    tag_137:\n        /* \"contracts/SafeMath.sol\":560:561  c */\n      dup1\n        /* \"contracts/SafeMath.sol\":553:561  return c */\n      swap2\n      pop\n        /* \"contracts/SafeMath.sol\":444:566  function safeAdd(uint a, uint b) internal returns (uint) {... */\n    tag_136:\n      pop\n      swap3\n      swap2\n      pop\n      pop\n      jump\t// out\n        /* \"contracts/SafeMath.sol\":340:440  function safeSub(uint a, uint b) internal returns (uint) {... */\n    tag_100:\n        /* \"contracts/SafeMath.sol\":391:395  uint */\n      0x0\n        /* \"contracts/SafeMath.sol\":403:417  assert(b <= a) */\n      tag_141\n        /* \"contracts/SafeMath.sol\":415:416  a */\n      dup4\n        /* \"contracts/SafeMath.sol\":410:411  b */\n      dup4\n        /* \"contracts/SafeMath.sol\":410:416  b <= a */\n      gt\n      iszero\n        /* \"contracts/SafeMath.sol\":403:409  assert */\n      tag_139\n        /* \"contracts/SafeMath.sol\":403:417  assert(b <= a) */\n      jump\t// in\n    tag_141:\n      pop\n        /* \"contracts/SafeMath.sol\":430:435  a - b */\n      dup1\n      dup3\n      sub\n        /* \"contracts/SafeMath.sol\":340:440  function safeSub(uint a, uint b) internal returns (uint) {... */\n    tag_140:\n      swap3\n      swap2\n      pop\n      pop\n      jump\t// out\n        /* \"contracts/SafeMath.sol\":1000:1087  function assert(bool assertion) internal {... */\n    tag_139:\n        /* \"contracts/SafeMath.sol\":1052:1061  assertion */\n      dup1\n        /* \"contracts/SafeMath.sol\":1051:1061  !assertion */\n      iszero\n        /* \"contracts/SafeMath.sol\":1047:1083  if (!assertion) {... */\n      iszero\n      tag_135\n      jumpi\n        /* \"contracts/SafeMath.sol\":1071:1076  throw */\n      revert(0x0, 0x0)\n        /* \"contracts/SafeMath.sol\":1047:1083  if (!assertion) {... */\n    tag_143:\n        /* \"contracts/SafeMath.sol\":1000:1087  function assert(bool assertion) internal {... */\n    tag_142:\n      pop\n      jump\t// out\n}\n","bytecode":{"linkReferences":{},"object":"60a0604052600460608190527f76302e3100000000000000000000000000000000000000000000000000000000608090815262000040916005919062000139565b5034156200004a57fe5b5b5b60018054600160a060020a03191633600160a060020a03161790555b6701351609ff75800060068190556007819055600160a060020a033316600090815260096020908152604091829020929092558051808201909152600f8082527f694578656320524c4320546f6b656e000000000000000000000000000000000091909201908152620000df916002919062000139565b506040805180820190915260038082527f524c430000000000000000000000000000000000000000000000000000000000602090920191825262000124918162000139565b506004805460ff191660091790555b620001e3565b828054600181600116156101000203166002900490600052602060002090601f016020900481019282601f106200017c57805160ff1916838001178555620001ac565b82800160010185558215620001ac579182015b82811115620001ac5782518255916020019190600101906200018f565b5b50620001bb929150620001bf565b5090565b620001e091905b80821115620001bb5760008155600101620001c6565b5090565b90565b610e8f80620001f36000396000f300606060405236156101045763ffffffff7c010000000000000000000000000000000000000000000000000000000060003504166306fdde038114610106578063095ea7b3146101965780630aa3ae7e146101c957806318160ddd146101fc57806323b872dd1461021e578063313ce56714610257578063378dc3dc1461027d57806342966c681461029f57806354fd4d50146102c657806361f49ed61461035657806370a082311461038f5780638da5cb5b146103bd57806395d89b41146103e9578063a9059cbb14610479578063cae9ca51146104ac578063cf30901214610511578063dd62ed3e14610535578063e2d6f63414610569578063f2fde38b1461059c575bfe5b341561010e57fe5b6101166105ba565b60408051602080825283518183015283519192839290830191850190808383821561015c575b80518252602083111561015c57601f19909201916020918201910161013c565b505050905090810190601f1680156101885780820380516001836020036101000a031916815260200191505b509250505060405180910390f35b341561019e57fe5b6101b5600160a060020a0360043516602435610645565b604080519115158252519081900360200190f35b34156101d157fe5b6101b5600160a060020a03600435166024356106b0565b604080519115158252519081900360200190f35b341561020457fe5b61020c610766565b60408051918252519081900360200190f35b341561022657fe5b6101b5600160a060020a036004358116906024351660443561076c565b604080519115158252519081900360200190f35b341561025f57fe5b61026761086f565b6040805160ff9092168252519081900360200190f35b341561028557fe5b61020c610878565b60408051918252519081900360200190f35b34156102a757fe5b6101b560043561087e565b604080519115158252519081900360200190f35b34156102ce57fe5b610116610914565b60408051602080825283518183015283519192839290830191850190808383821561015c575b80518252602083111561015c57601f19909201916020918201910161013c565b505050905090810190601f1680156101885780820380516001836020036101000a031916815260200191505b509250505060405180910390f35b341561035e57fe5b6101b5600160a060020a03600435811690602435166044356109a2565b604080519115158252519081900360200190f35b341561039757fe5b61020c600160a060020a0360043516610a26565b60408051918252519081900360200190f35b34156103c557fe5b6103cd610a45565b60408051600160a060020a039092168252519081900360200190f35b34156103f157fe5b610116610a54565b60408051602080825283518183015283519192839290830191850190808383821561015c575b80518252602083111561015c57601f19909201916020918201910161013c565b505050905090810190601f1680156101885780820380516001836020036101000a031916815260200191505b509250505060405180910390f35b341561048157fe5b6101b5600160a060020a0360043516602435610ae2565b604080519115158252519081900360200190f35b34156104b457fe5b604080516020600460443581810135601f810184900484028501840190955284845261050f948235600160a060020a0316946024803595606494929391909201918190840183828082843750949650610b9695505050505050565b005b341561051957fe5b6101b5610cc8565b604080519115158252519081900360200190f35b341561053d57fe5b61020c600160a060020a0360043581169060243516610cd1565b60408051918252519081900360200190f35b341561057157fe5b6101b5600160a060020a0360043516602435610cfe565b604080519115158252519081900360200190f35b34156105a457fe5b61050f600160a060020a0360043516610db1565b005b6002805460408051602060018416156101000260001901909316849004601f8101849004840282018401909252818152929183018282801561063d5780601f106106125761010080835404028352916020019161063d565b820191906000526020600020905b81548152906001019060200180831161062057829003601f168201915b505050505081565b600160a060020a033381166000818152600a6020908152604080832094871680845294825280832086905580518681529051929493927f8c5be1e5ebec7d5bd14f71427d1e84f3dd0314c0f7b2291e5b200ac8c7c3b925929181900390910190a35060015b92915050565b60015460009033600160a060020a03908116911614156106aa57600160a060020a0383166000908152600960205260409020546106ed9083610e11565b600160a060020a0384166000908152600960205260409020556007546107139083610e11565b600755604080518381529051600160a060020a038086169233909116917fddf252ad1be2c89b69c2b068fc378daa952ba7f163c4a11628f55a4df523b3ef9181900360200190a35060015b5b5b92915050565b60075481565b600160a060020a038084166000908152600a602090815260408083203385168452825280832054938616835260099091528120549091906107ad9084610e11565b600160a060020a0380861660009081526009602052604080822093909355908716815220546107dc9084610e39565b600160a060020a0386166000908152600960205260409020556107ff8184610e39565b600160a060020a038087166000818152600a60209081526040808320338616845282529182902094909455805187815290519288169391927fddf252ad1be2c89b69c2b068fc378daa952ba7f163c4a11628f55a4df523b3ef929181900390910190a3600191505b509392505050565b60045460ff1681565b60065481565b600160a060020a0333166000908152600960205260408120546108a19083610e39565b600160a060020a0333166000908152600960205260409020556007546108c79083610e39565b600755604080518381529051600091600160a060020a033316917fddf252ad1be2c89b69c2b068fc378daa952ba7f163c4a11628f55a4df523b3ef9181900360200190a35060015b919050565b6005805460408051602060026001851615610100026000190190941693909304601f8101849004840282018401909252818152929183018282801561063d5780601f106106125761010080835404028352916020019161063d565b820191906000526020600020905b81548152906001019060200180831161062057829003601f168201915b505050505081565b60015460009033600160a060020a0390811691161415610a1d57600160a060020a038085166000818152600a6020908152604080832094881680845294825291829020869055815186815291517f8c5be1e5ebec7d5bd14f71427d1e84f3dd0314c0f7b2291e5b200ac8c7c3b9259281900390910190a35060015b5b5b9392505050565b600160a060020a0381166000908152600960205260409020545b919050565b600154600160a060020a031681565b6003805460408051602060026001851615610100026000190190941693909304601f8101849004840282018401909252818152929183018282801561063d5780601f106106125761010080835404028352916020019161063d565b820191906000526020600020905b81548152906001019060200180831161062057829003601f168201915b505050505081565b600160a060020a033316600090815260096020526040812054610b059083610e39565b600160a060020a033381166000908152600960205260408082209390935590851681522054610b349083610e11565b600160a060020a038085166000818152600960209081526040918290209490945580518681529051919333909316927fddf252ad1be2c89b69c2b068fc378daa952ba7f163c4a11628f55a4df523b3ef92918290030190a35060015b92915050565b82610ba18184610645565b15610cc15780600160a060020a0316638f4ffcb1338530866040518563ffffffff167c01000000000000000000000000000000000000000000000000000000000281526004018085600160a060020a0316600160a060020a0316815260200184815260200183600160a060020a0316600160a060020a0316815260200180602001828103825283818151815260200191508051906020019080838360008314610c65575b805182526020831115610c6557601f199092019160209182019101610c45565b505050905090810190601f168015610c915780820380516001836020036101000a031916815260200191505b5095505050505050600060405180830381600087803b1515610caf57fe5b6102c65a03f11515610cbd57fe5b5050505b5b50505050565b60085460ff1681565b600160a060020a038083166000908152600a60209081526040808320938516835292905220545b92915050565b60015460009033600160a060020a03908116911614156106aa57600160a060020a038316600090815260096020526040902054610d3b9083610e39565b600160a060020a038416600090815260096020526040902055600754610d619083610e39565b600755604080518381529051600091600160a060020a038616917fddf252ad1be2c89b69c2b068fc378daa952ba7f163c4a11628f55a4df523b3ef9181900360200190a35060015b5b5b92915050565b60015433600160a060020a0390811691161415610e0b57600160a060020a03811615610e0b57600180547fffffffffffffffffffffffff000000000000000000000000000000000000000016600160a060020a0383161790555b5b5b5b50565b6000828201610e2e848210801590610e295750838210155b610e52565b8091505b5092915050565b6000610e4783831115610e52565b508082035b92915050565b801515610e0b5760006000fd5b5b505600a165627a7a72305820223b56c79eaadc970522412d2a69a9aa9f3fe884ce539800b4bf2abedc52a3540029","opcodes":"PUSH1 0xA0 PUSH1 0x40 MSTORE PUSH1 0x4 PUSH1 0x60 DUP2 SWAP1 MSTORE PUSH32 0x76302E3100000000000000000000000000000000000000000000000000000000 PUSH1 0x80 SWAP1 DUP2 MSTORE PUSH3 0x40 SWAP2 PUSH1 0x5 SWAP2 SWAP1 PUSH3 0x139 JUMP JUMPDEST POP CALLVALUE ISZERO PUSH3 0x4A JUMPI INVALID JUMPDEST JUMPDEST JUMPDEST PUSH1 0x1 DUP1 SLOAD PUSH1 0x1 PUSH1 0xA0 PUSH1 0x2 EXP SUB NOT AND CALLER PUSH1 0x1 PUSH1 0xA0 PUSH1 0x2 EXP SUB AND OR SWAP1 SSTORE JUMPDEST PUSH8 0x1351609FF758000 PUSH1 0x6 DUP2 SWAP1 SSTORE PUSH1 0x7 DUP2 SWAP1 SSTORE PUSH1 0x1 PUSH1 0xA0 PUSH1 0x2 EXP SUB CALLER AND PUSH1 0x0 SWAP1 DUP2 MSTORE PUSH1 0x9 PUSH1 0x20 SWAP1 DUP2 MSTORE PUSH1 0x40 SWAP2 DUP3 SWAP1 SHA3 SWAP3 SWAP1 SWAP3 SSTORE DUP1 MLOAD DUP1 DUP3 ADD SWAP1 SWAP2 MSTORE PUSH1 0xF DUP1 DUP3 MSTORE PUSH32 0x694578656320524C4320546F6B656E0000000000000000000000000000000000 SWAP2 SWAP1 SWAP3 ADD SWAP1 DUP2 MSTORE PUSH3 0xDF SWAP2 PUSH1 0x2 SWAP2 SWAP1 PUSH3 0x139 JUMP JUMPDEST POP PUSH1 0x40 DUP1 MLOAD DUP1 DUP3 ADD SWAP1 SWAP2 MSTORE PUSH1 0x3 DUP1 DUP3 MSTORE PUSH32 0x524C430000000000000000000000000000000000000000000000000000000000 PUSH1 0x20 SWAP1 SWAP3 ADD SWAP2 DUP3 MSTORE PUSH3 0x124 SWAP2 DUP2 PUSH3 0x139 JUMP JUMPDEST POP PUSH1 0x4 DUP1 SLOAD PUSH1 0xFF NOT AND PUSH1 0x9 OR SWAP1 SSTORE JUMPDEST PUSH3 0x1E3 JUMP JUMPDEST DUP3 DUP1 SLOAD PUSH1 0x1 DUP2 PUSH1 0x1 AND ISZERO PUSH2 0x100 MUL SUB AND PUSH1 0x2 SWAP1 DIV SWAP1 PUSH1 0x0 MSTORE PUSH1 0x20 PUSH1 0x0 SHA3 SWAP1 PUSH1 0x1F ADD PUSH1 0x20 SWAP1 DIV DUP2 ADD SWAP3 DUP3 PUSH1 0x1F LT PUSH3 0x17C JUMPI DUP1 MLOAD PUSH1 0xFF NOT AND DUP4 DUP1 ADD OR DUP6 SSTORE PUSH3 0x1AC JUMP JUMPDEST DUP3 DUP1 ADD PUSH1 0x1 ADD DUP6 SSTORE DUP3 ISZERO PUSH3 0x1AC JUMPI SWAP2 DUP3 ADD JUMPDEST DUP3 DUP2 GT ISZERO PUSH3 0x1AC JUMPI DUP3 MLOAD DUP3 SSTORE SWAP2 PUSH1 0x20 ADD SWAP2 SWAP1 PUSH1 0x1 ADD SWAP1 PUSH3 0x18F JUMP JUMPDEST JUMPDEST POP PUSH3 0x1BB SWAP3 SWAP2 POP PUSH3 0x1BF JUMP JUMPDEST POP SWAP1 JUMP JUMPDEST PUSH3 0x1E0 SWAP2 SWAP1 JUMPDEST DUP1 DUP3 GT ISZERO PUSH3 0x1BB JUMPI PUSH1 0x0 DUP2 SSTORE PUSH1 0x1 ADD PUSH3 0x1C6 JUMP JUMPDEST POP SWAP1 JUMP JUMPDEST SWAP1 JUMP JUMPDEST PUSH2 0xE8F DUP1 PUSH3 0x1F3 PUSH1 0x0 CODECOPY PUSH1 0x0 RETURN STOP PUSH1 0x60 PUSH1 0x40 MSTORE CALLDATASIZE ISZERO PUSH2 0x104 JUMPI PUSH4 0xFFFFFFFF PUSH29 0x100000000000000000000000000000000000000000000000000000000 PUSH1 0x0 CALLDATALOAD DIV AND PUSH4 0x6FDDE03 DUP2 EQ PUSH2 0x106 JUMPI DUP1 PUSH4 0x95EA7B3 EQ PUSH2 0x196 JUMPI DUP1 PUSH4 0xAA3AE7E EQ PUSH2 0x1C9 JUMPI DUP1 PUSH4 0x18160DDD EQ PUSH2 0x1FC JUMPI DUP1 PUSH4 0x23B872DD EQ PUSH2 0x21E JUMPI DUP1 PUSH4 0x313CE567 EQ PUSH2 0x257 JUMPI DUP1 PUSH4 0x378DC3DC EQ PUSH2 0x27D JUMPI DUP1 PUSH4 0x42966C68 EQ PUSH2 0x29F JUMPI DUP1 PUSH4 0x54FD4D50 EQ PUSH2 0x2C6 JUMPI DUP1 PUSH4 0x61F49ED6 EQ PUSH2 0x356 JUMPI DUP1 PUSH4 0x70A08231 EQ PUSH2 0x38F JUMPI DUP1 PUSH4 0x8DA5CB5B EQ PUSH2 0x3BD JUMPI DUP1 PUSH4 0x95D89B41 EQ PUSH2 0x3E9 JUMPI DUP1 PUSH4 0xA9059CBB EQ PUSH2 0x479 JUMPI DUP1 PUSH4 0xCAE9CA51 EQ PUSH2 0x4AC JUMPI DUP1 PUSH4 0xCF309012 EQ PUSH2 0x511 JUMPI DUP1 PUSH4 0xDD62ED3E EQ PUSH2 0x535 JUMPI DUP1 PUSH4 0xE2D6F634 EQ PUSH2 0x569 JUMPI DUP1 PUSH4 0xF2FDE38B EQ PUSH2 0x59C JUMPI JUMPDEST INVALID JUMPDEST CALLVALUE ISZERO PUSH2 0x10E JUMPI INVALID JUMPDEST PUSH2 0x116 PUSH2 0x5BA JUMP JUMPDEST PUSH1 0x40 DUP1 MLOAD PUSH1 0x20 DUP1 DUP3 MSTORE DUP4 MLOAD DUP2 DUP4 ADD MSTORE DUP4 MLOAD SWAP2 SWAP3 DUP4 SWAP3 SWAP1 DUP4 ADD SWAP2 DUP6 ADD SWAP1 DUP1 DUP4 DUP4 DUP3 ISZERO PUSH2 0x15C JUMPI JUMPDEST DUP1 MLOAD DUP3 MSTORE PUSH1 0x20 DUP4 GT ISZERO PUSH2 0x15C JUMPI PUSH1 0x1F NOT SWAP1 SWAP3 ADD SWAP2 PUSH1 0x20 SWAP2 DUP3 ADD SWAP2 ADD PUSH2 0x13C JUMP JUMPDEST POP POP POP SWAP1 POP SWAP1 DUP2 ADD SWAP1 PUSH1 0x1F AND DUP1 ISZERO PUSH2 0x188 JUMPI DUP1 DUP3 SUB DUP1 MLOAD PUSH1 0x1 DUP4 PUSH1 0x20 SUB PUSH2 0x100 EXP SUB NOT AND DUP2 MSTORE PUSH1 0x20 ADD SWAP2 POP JUMPDEST POP SWAP3 POP POP POP PUSH1 0x40 MLOAD DUP1 SWAP2 SUB SWAP1 RETURN JUMPDEST CALLVALUE ISZERO PUSH2 0x19E JUMPI INVALID JUMPDEST PUSH2 0x1B5 PUSH1 0x1 PUSH1 0xA0 PUSH1 0x2 EXP SUB PUSH1 0x4 CALLDATALOAD AND PUSH1 0x24 CALLDATALOAD PUSH2 0x645 JUMP JUMPDEST PUSH1 0x40 DUP1 MLOAD SWAP2 ISZERO ISZERO DUP3 MSTORE MLOAD SWAP1 DUP2 SWAP1 SUB PUSH1 0x20 ADD SWAP1 RETURN JUMPDEST CALLVALUE ISZERO PUSH2 0x1D1 JUMPI INVALID JUMPDEST PUSH2 0x1B5 PUSH1 0x1 PUSH1 0xA0 PUSH1 0x2 EXP SUB PUSH1 0x4 CALLDATALOAD AND PUSH1 0x24 CALLDATALOAD PUSH2 0x6B0 JUMP JUMPDEST PUSH1 0x40 DUP1 MLOAD SWAP2 ISZERO ISZERO DUP3 MSTORE MLOAD SWAP1 DUP2 SWAP1 SUB PUSH1 0x20 ADD SWAP1 RETURN JUMPDEST CALLVALUE ISZERO PUSH2 0x204 JUMPI INVALID JUMPDEST PUSH2 0x20C PUSH2 0x766 JUMP JUMPDEST PUSH1 0x40 DUP1 MLOAD SWAP2 DUP3 MSTORE MLOAD SWAP1 DUP2 SWAP1 SUB PUSH1 0x20 ADD SWAP1 RETURN JUMPDEST CALLVALUE ISZERO PUSH2 0x226 JUMPI INVALID JUMPDEST PUSH2 0x1B5 PUSH1 0x1 PUSH1 0xA0 PUSH1 0x2 EXP SUB PUSH1 0x4 CALLDATALOAD DUP2 AND SWAP1 PUSH1 0x24 CALLDATALOAD AND PUSH1 0x44 CALLDATALOAD PUSH2 0x76C JUMP JUMPDEST PUSH1 0x40 DUP1 MLOAD SWAP2 ISZERO ISZERO DUP3 MSTORE MLOAD SWAP1 DUP2 SWAP1 SUB PUSH1 0x20 ADD SWAP1 RETURN JUMPDEST CALLVALUE ISZERO PUSH2 0x25F JUMPI INVALID JUMPDEST PUSH2 0x267 PUSH2 0x86F JUMP JUMPDEST PUSH1 0x40 DUP1 MLOAD PUSH1 0xFF SWAP1 SWAP3 AND DUP3 MSTORE MLOAD SWAP1 DUP2 SWAP1 SUB PUSH1 0x20 ADD SWAP1 RETURN JUMPDEST CALLVALUE ISZERO PUSH2 0x285 JUMPI INVALID JUMPDEST PUSH2 0x20C PUSH2 0x878 JUMP JUMPDEST PUSH1 0x40 DUP1 MLOAD SWAP2 DUP3 MSTORE MLOAD SWAP1 DUP2 SWAP1 SUB PUSH1 0x20 ADD SWAP1 RETURN JUMPDEST CALLVALUE ISZERO PUSH2 0x2A7 JUMPI INVALID JUMPDEST PUSH2 0x1B5 PUSH1 0x4 CALLDATALOAD PUSH2 0x87E JUMP JUMPDEST PUSH1 0x40 DUP1 MLOAD SWAP2 ISZERO ISZERO DUP3 MSTORE MLOAD SWAP1 DUP2 SWAP1 SUB PUSH1 0x20 ADD SWAP1 RETURN JUMPDEST CALLVALUE ISZERO PUSH2 0x2CE JUMPI INVALID JUMPDEST PUSH2 0x116 PUSH2 0x914 JUMP JUMPDEST PUSH1 0x40 DUP1 MLOAD PUSH1 0x20 DUP1 DUP3 MSTORE DUP4 MLOAD DUP2 DUP4 ADD MSTORE DUP4 MLOAD SWAP2 SWAP3 DUP4 SWAP3 SWAP1 DUP4 ADD SWAP2 DUP6 ADD SWAP1 DUP1 DUP4 DUP4 DUP3 ISZERO PUSH2 0x15C JUMPI JUMPDEST DUP1 MLOAD DUP3 MSTORE PUSH1 0x20 DUP4 GT ISZERO PUSH2 0x15C JUMPI PUSH1 0x1F NOT SWAP1 SWAP3 ADD SWAP2 PUSH1 0x20 SWAP2 DUP3 ADD SWAP2 ADD PUSH2 0x13C JUMP JUMPDEST POP POP POP SWAP1 POP SWAP1 DUP2 ADD SWAP1 PUSH1 0x1F AND DUP1 ISZERO PUSH2 0x188 JUMPI DUP1 DUP3 SUB DUP1 MLOAD PUSH1 0x1 DUP4 PUSH1 0x20 SUB PUSH2 0x100 EXP SUB NOT AND DUP2 MSTORE PUSH1 0x20 ADD SWAP2 POP JUMPDEST POP SWAP3 POP POP POP PUSH1 0x40 MLOAD DUP1 SWAP2 SUB SWAP1 RETURN JUMPDEST CALLVALUE ISZERO PUSH2 0x35E JUMPI INVALID JUMPDEST PUSH2 0x1B5 PUSH1 0x1 PUSH1 0xA0 PUSH1 0x2 EXP SUB PUSH1 0x4 CALLDATALOAD DUP2 AND SWAP1 PUSH1 0x24 CALLDATALOAD AND PUSH1 0x44 CALLDATALOAD PUSH2 0x9A2 JUMP JUMPDEST PUSH1 0x40 DUP1 MLOAD SWAP2 ISZERO ISZERO DUP3 MSTORE MLOAD SWAP1 DUP2 SWAP1 SUB PUSH1 0x20 ADD SWAP1 RETURN JUMPDEST CALLVALUE ISZERO PUSH2 0x397 JUMPI INVALID JUMPDEST PUSH2 0x20C PUSH1 0x1 PUSH1 0xA0 PUSH1 0x2 EXP SUB PUSH1 0x4 CALLDATALOAD AND PUSH2 0xA26 JUMP JUMPDEST PUSH1 0x40 DUP1 MLOAD SWAP2 DUP3 MSTORE MLOAD SWAP1 DUP2 SWAP1 SUB PUSH1 0x20 ADD SWAP1 RETURN JUMPDEST CALLVALUE ISZERO PUSH2 0x3C5 JUMPI INVALID JUMPDEST PUSH2 0x3CD PUSH2 0xA45 JUMP JUMPDEST PUSH1 0x40 DUP1 MLOAD PUSH1 0x1 PUSH1 0xA0 PUSH1 0x2 EXP SUB SWAP1 SWAP3 AND DUP3 MSTORE MLOAD SWAP1 DUP2 SWAP1 SUB PUSH1 0x20 ADD SWAP1 RETURN JUMPDEST CALLVALUE ISZERO PUSH2 0x3F1 JUMPI INVALID JUMPDEST PUSH2 0x116 PUSH2 0xA54 JUMP JUMPDEST PUSH1 0x40 DUP1 MLOAD PUSH1 0x20 DUP1 DUP3 MSTORE DUP4 MLOAD DUP2 DUP4 ADD MSTORE DUP4 MLOAD SWAP2 SWAP3 DUP4 SWAP3 SWAP1 DUP4 ADD SWAP2 DUP6 ADD SWAP1 DUP1 DUP4 DUP4 DUP3 ISZERO PUSH2 0x15C JUMPI JUMPDEST DUP1 MLOAD DUP3 MSTORE PUSH1 0x20 DUP4 GT ISZERO PUSH2 0x15C JUMPI PUSH1 0x1F NOT SWAP1 SWAP3 ADD SWAP2 PUSH1 0x20 SWAP2 DUP3 ADD SWAP2 ADD PUSH2 0x13C JUMP JUMPDEST POP POP POP SWAP1 POP SWAP1 DUP2 ADD SWAP1 PUSH1 0x1F AND DUP1 ISZERO PUSH2 0x188 JUMPI DUP1 DUP3 SUB DUP1 MLOAD PUSH1 0x1 DUP4 PUSH1 0x20 SUB PUSH2 0x100 EXP SUB NOT AND DUP2 MSTORE PUSH1 0x20 ADD SWAP2 POP JUMPDEST POP SWAP3 POP POP POP PUSH1 0x40 MLOAD DUP1 SWAP2 SUB SWAP1 RETURN JUMPDEST CALLVALUE ISZERO PUSH2 0x481 JUMPI INVALID JUMPDEST PUSH2 0x1B5 PUSH1 0x1 PUSH1 0xA0 PUSH1 0x2 EXP SUB PUSH1 0x4 CALLDATALOAD AND PUSH1 0x24 CALLDATALOAD PUSH2 0xAE2 JUMP JUMPDEST PUSH1 0x40 DUP1 MLOAD SWAP2 ISZERO ISZERO DUP3 MSTORE MLOAD SWAP1 DUP2 SWAP1 SUB PUSH1 0x20 ADD SWAP1 RETURN JUMPDEST CALLVALUE ISZERO PUSH2 0x4B4 JUMPI INVALID JUMPDEST PUSH1 0x40 DUP1 MLOAD PUSH1 0x20 PUSH1 0x4 PUSH1 0x44 CALLDATALOAD DUP2 DUP2 ADD CALLDATALOAD PUSH1 0x1F DUP2 ADD DUP5 SWAP1 DIV DUP5 MUL DUP6 ADD DUP5 ADD SWAP1 SWAP6 MSTORE DUP5 DUP5 MSTORE PUSH2 0x50F SWAP5 DUP3 CALLDATALOAD PUSH1 0x1 PUSH1 0xA0 PUSH1 0x2 EXP SUB AND SWAP5 PUSH1 0x24 DUP1 CALLDATALOAD SWAP6 PUSH1 0x64 SWAP5 SWAP3 SWAP4 SWAP2 SWAP1 SWAP3 ADD SWAP2 DUP2 SWAP1 DUP5 ADD DUP4 DUP3 DUP1 DUP3 DUP5 CALLDATACOPY POP SWAP5 SWAP7 POP PUSH2 0xB96 SWAP6 POP POP POP POP POP POP JUMP JUMPDEST STOP JUMPDEST CALLVALUE ISZERO PUSH2 0x519 JUMPI INVALID JUMPDEST PUSH2 0x1B5 PUSH2 0xCC8 JUMP JUMPDEST PUSH1 0x40 DUP1 MLOAD SWAP2 ISZERO ISZERO DUP3 MSTORE MLOAD SWAP1 DUP2 SWAP1 SUB PUSH1 0x20 ADD SWAP1 RETURN JUMPDEST CALLVALUE ISZERO PUSH2 0x53D JUMPI INVALID JUMPDEST PUSH2 0x20C PUSH1 0x1 PUSH1 0xA0 PUSH1 0x2 EXP SUB PUSH1 0x4 CALLDATALOAD DUP2 AND SWAP1 PUSH1 0x24 CALLDATALOAD AND PUSH2 0xCD1 JUMP JUMPDEST PUSH1 0x40 DUP1 MLOAD SWAP2 DUP3 MSTORE MLOAD SWAP1 DUP2 SWAP1 SUB PUSH1 0x20 ADD SWAP1 RETURN JUMPDEST CALLVALUE ISZERO PUSH2 0x571 JUMPI INVALID JUMPDEST PUSH2 0x1B5 PUSH1 0x1 PUSH1 0xA0 PUSH1 0x2 EXP SUB PUSH1 0x4 CALLDATALOAD AND PUSH1 0x24 CALLDATALOAD PUSH2 0xCFE JUMP JUMPDEST PUSH1 0x40 DUP1 MLOAD SWAP2 ISZERO ISZERO DUP3 MSTORE MLOAD SWAP1 DUP2 SWAP1 SUB PUSH1 0x20 ADD SWAP1 RETURN JUMPDEST CALLVALUE ISZERO PUSH2 0x5A4 JUMPI INVALID JUMPDEST PUSH2 0x50F PUSH1 0x1 PUSH1 0xA0 PUSH1 0x2 EXP SUB PUSH1 0x4 CALLDATALOAD AND PUSH2 0xDB1 JUMP JUMPDEST STOP JUMPDEST PUSH1 0x2 DUP1 SLOAD PUSH1 0x40 DUP1 MLOAD PUSH1 0x20 PUSH1 0x1 DUP5 AND ISZERO PUSH2 0x100 MUL PUSH1 0x0 NOT ADD SWAP1 SWAP4 AND DUP5 SWAP1 DIV PUSH1 0x1F DUP2 ADD DUP5 SWAP1 DIV DUP5 MUL DUP3 ADD DUP5 ADD SWAP1 SWAP3 MSTORE DUP2 DUP2 MSTORE SWAP3 SWAP2 DUP4 ADD DUP3 DUP3 DUP1 ISZERO PUSH2 0x63D JUMPI DUP1 PUSH1 0x1F LT PUSH2 0x612 JUMPI PUSH2 0x100 DUP1 DUP4 SLOAD DIV MUL DUP4 MSTORE SWAP2 PUSH1 0x20 ADD SWAP2 PUSH2 0x63D JUMP JUMPDEST DUP3 ADD SWAP2 SWAP1 PUSH1 0x0 MSTORE PUSH1 0x20 PUSH1 0x0 SHA3 SWAP1 JUMPDEST DUP2 SLOAD DUP2 MSTORE SWAP1 PUSH1 0x1 ADD SWAP1 PUSH1 0x20 ADD DUP1 DUP4 GT PUSH2 0x620 JUMPI DUP3 SWAP1 SUB PUSH1 0x1F AND DUP3 ADD SWAP2 JUMPDEST POP POP POP POP POP DUP2 JUMP JUMPDEST PUSH1 0x1 PUSH1 0xA0 PUSH1 0x2 EXP SUB CALLER DUP2 AND PUSH1 0x0 DUP2 DUP2 MSTORE PUSH1 0xA PUSH1 0x20 SWAP1 DUP2 MSTORE PUSH1 0x40 DUP1 DUP4 SHA3 SWAP5 DUP8 AND DUP1 DUP5 MSTORE SWAP5 DUP3 MSTORE DUP1 DUP4 SHA3 DUP7 SWAP1 SSTORE DUP1 MLOAD DUP7 DUP2 MSTORE SWAP1 MLOAD SWAP3 SWAP5 SWAP4 SWAP3 PUSH32 0x8C5BE1E5EBEC7D5BD14F71427D1E84F3DD0314C0F7B2291E5B200AC8C7C3B925 SWAP3 SWAP2 DUP2 SWAP1 SUB SWAP1 SWAP2 ADD SWAP1 LOG3 POP PUSH1 0x1 JUMPDEST SWAP3 SWAP2 POP POP JUMP JUMPDEST PUSH1 0x1 SLOAD PUSH1 0x0 SWAP1 CALLER PUSH1 0x1 PUSH1 0xA0 PUSH1 0x2 EXP SUB SWAP1 DUP2 AND SWAP2 AND EQ ISZERO PUSH2 0x6AA JUMPI PUSH1 0x1 PUSH1 0xA0 PUSH1 0x2 EXP SUB DUP4 AND PUSH1 0x0 SWAP1 DUP2 MSTORE PUSH1 0x9 PUSH1 0x20 MSTORE PUSH1 0x40 SWAP1 SHA3 SLOAD PUSH2 0x6ED SWAP1 DUP4 PUSH2 0xE11 JUMP JUMPDEST PUSH1 0x1 PUSH1 0xA0 PUSH1 0x2 EXP SUB DUP5 AND PUSH1 0x0 SWAP1 DUP2 MSTORE PUSH1 0x9 PUSH1 0x20 MSTORE PUSH1 0x40 SWAP1 SHA3 SSTORE PUSH1 0x7 SLOAD PUSH2 0x713 SWAP1 DUP4 PUSH2 0xE11 JUMP JUMPDEST PUSH1 0x7 SSTORE PUSH1 0x40 DUP1 MLOAD DUP4 DUP2 MSTORE SWAP1 MLOAD PUSH1 0x1 PUSH1 0xA0 PUSH1 0x2 EXP SUB DUP1 DUP7 AND SWAP3 CALLER SWAP1 SWAP2 AND SWAP2 PUSH32 0xDDF252AD1BE2C89B69C2B068FC378DAA952BA7F163C4A11628F55A4DF523B3EF SWAP2 DUP2 SWAP1 SUB PUSH1 0x20 ADD SWAP1 LOG3 POP PUSH1 0x1 JUMPDEST JUMPDEST JUMPDEST SWAP3 SWAP2 POP POP JUMP JUMPDEST PUSH1 0x7 SLOAD DUP2 JUMP JUMPDEST PUSH1 0x1 PUSH1 0xA0 PUSH1 0x2 EXP SUB DUP1 DUP5 AND PUSH1 0x0 SWAP1 DUP2 MSTORE PUSH1 0xA PUSH1 0x20 SWAP1 DUP2 MSTORE PUSH1 0x40 DUP1 DUP4 SHA3 CALLER DUP6 AND DUP5 MSTORE DUP3 MSTORE DUP1 DUP4 SHA3 SLOAD SWAP4 DUP7 AND DUP4 MSTORE PUSH1 0x9 SWAP1 SWAP2 MSTORE DUP2 SHA3 SLOAD SWAP1 SWAP2 SWAP1 PUSH2 0x7AD SWAP1 DUP5 PUSH2 0xE11 JUMP JUMPDEST PUSH1 0x1 PUSH1 0xA0 PUSH1 0x2 EXP SUB DUP1 DUP7 AND PUSH1 0x0 SWAP1 DUP2 MSTORE PUSH1 0x9 PUSH1 0x20 MSTORE PUSH1 0x40 DUP1 DUP3 SHA3 SWAP4 SWAP1 SWAP4 SSTORE SWAP1 DUP8 AND DUP2 MSTORE SHA3 SLOAD PUSH2 0x7DC SWAP1 DUP5 PUSH2 0xE39 JUMP JUMPDEST PUSH1 0x1 PUSH1 0xA0 PUSH1 0x2 EXP SUB DUP7 AND PUSH1 0x0 SWAP1 DUP2 MSTORE PUSH1 0x9 PUSH1 0x20 MSTORE PUSH1 0x40 SWAP1 SHA3 SSTORE PUSH2 0x7FF DUP2 DUP5 PUSH2 0xE39 JUMP JUMPDEST PUSH1 0x1 PUSH1 0xA0 PUSH1 0x2 EXP SUB DUP1 DUP8 AND PUSH1 0x0 DUP2 DUP2 MSTORE PUSH1 0xA PUSH1 0x20 SWAP1 DUP2 MSTORE PUSH1 0x40 DUP1 DUP4 SHA3 CALLER DUP7 AND DUP5 MSTORE DUP3 MSTORE SWAP2 DUP3 SWAP1 SHA3 SWAP5 SWAP1 SWAP5 SSTORE DUP1 MLOAD DUP8 DUP2 MSTORE SWAP1 MLOAD SWAP3 DUP9 AND SWAP4 SWAP2 SWAP3 PUSH32 0xDDF252AD1BE2C89B69C2B068FC378DAA952BA7F163C4A11628F55A4DF523B3EF SWAP3 SWAP2 DUP2 SWAP1 SUB SWAP1 SWAP2 ADD SWAP1 LOG3 PUSH1 0x1 SWAP2 POP JUMPDEST POP SWAP4 SWAP3 POP POP POP JUMP JUMPDEST PUSH1 0x4 SLOAD PUSH1 0xFF AND DUP2 JUMP JUMPDEST PUSH1 0x6 SLOAD DUP2 JUMP JUMPDEST PUSH1 0x1 PUSH1 0xA0 PUSH1 0x2 EXP SUB CALLER AND PUSH1 0x0 SWAP1 DUP2 MSTORE PUSH1 0x9 PUSH1 0x20 MSTORE PUSH1 0x40 DUP2 SHA3 SLOAD PUSH2 0x8A1 SWAP1 DUP4 PUSH2 0xE39 JUMP JUMPDEST PUSH1 0x1 PUSH1 0xA0 PUSH1 0x2 EXP SUB CALLER AND PUSH1 0x0 SWAP1 DUP2 MSTORE PUSH1 0x9 PUSH1 0x20 MSTORE PUSH1 0x40 SWAP1 SHA3 SSTORE PUSH1 0x7 SLOAD PUSH2 0x8C7 SWAP1 DUP4 PUSH2 0xE39 JUMP JUMPDEST PUSH1 0x7 SSTORE PUSH1 0x40 DUP1 MLOAD DUP4 DUP2 MSTORE SWAP1 MLOAD PUSH1 0x0 SWAP2 PUSH1 0x1 PUSH1 0xA0 PUSH1 0x2 EXP SUB CALLER AND SWAP2 PUSH32 0xDDF252AD1BE2C89B69C2B068FC378DAA952BA7F163C4A11628F55A4DF523B3EF SWAP2 DUP2 SWAP1 SUB PUSH1 0x20 ADD SWAP1 LOG3 POP PUSH1 0x1 JUMPDEST SWAP2 SWAP1 POP JUMP JUMPDEST PUSH1 0x5 DUP1 SLOAD PUSH1 0x40 DUP1 MLOAD PUSH1 0x20 PUSH1 0x2 PUSH1 0x1 DUP6 AND ISZERO PUSH2 0x100 MUL PUSH1 0x0 NOT ADD SWAP1 SWAP5 AND SWAP4 SWAP1 SWAP4 DIV PUSH1 0x1F DUP2 ADD DUP5 SWAP1 DIV DUP5 MUL DUP3 ADD DUP5 ADD SWAP1 SWAP3 MSTORE DUP2 DUP2 MSTORE SWAP3 SWAP2 DUP4 ADD DUP3 DUP3 DUP1 ISZERO PUSH2 0x63D JUMPI DUP1 PUSH1 0x1F LT PUSH2 0x612 JUMPI PUSH2 0x100 DUP1 DUP4 SLOAD DIV MUL DUP4 MSTORE SWAP2 PUSH1 0x20 ADD SWAP2 PUSH2 0x63D JUMP JUMPDEST DUP3 ADD SWAP2 SWAP1 PUSH1 0x0 MSTORE PUSH1 0x20 PUSH1 0x0 SHA3 SWAP1 JUMPDEST DUP2 SLOAD DUP2 MSTORE SWAP1 PUSH1 0x1 ADD SWAP1 PUSH1 0x20 ADD DUP1 DUP4 GT PUSH2 0x620 JUMPI DUP3 SWAP1 SUB PUSH1 0x1F AND DUP3 ADD SWAP2 JUMPDEST POP POP POP POP POP DUP2 JUMP JUMPDEST PUSH1 0x1 SLOAD PUSH1 0x0 SWAP1 CALLER PUSH1 0x1 PUSH1 0xA0 PUSH1 0x2 EXP SUB SWAP1 DUP2 AND SWAP2 AND EQ ISZERO PUSH2 0xA1D JUMPI PUSH1 0x1 PUSH1 0xA0 PUSH1 0x2 EXP SUB DUP1 DUP6 AND PUSH1 0x0 DUP2 DUP2 MSTORE PUSH1 0xA PUSH1 0x20 SWAP1 DUP2 MSTORE PUSH1 0x40 DUP1 DUP4 SHA3 SWAP5 DUP9 AND DUP1 DUP5 MSTORE SWAP5 DUP3 MSTORE SWAP2 DUP3 SWAP1 SHA3 DUP7 SWAP1 SSTORE DUP2 MLOAD DUP7 DUP2 MSTORE SWAP2 MLOAD PUSH32 0x8C5BE1E5EBEC7D5BD14F71427D1E84F3DD0314C0F7B2291E5B200AC8C7C3B925 SWAP3 DUP2 SWAP1 SUB SWAP1 SWAP2 ADD SWAP1 LOG3 POP PUSH1 0x1 JUMPDEST JUMPDEST JUMPDEST SWAP4 SWAP3 POP POP POP JUMP JUMPDEST PUSH1 0x1 PUSH1 0xA0 PUSH1 0x2 EXP SUB DUP2 AND PUSH1 0x0 SWAP1 DUP2 MSTORE PUSH1 0x9 PUSH1 0x20 MSTORE PUSH1 0x40 SWAP1 SHA3 SLOAD JUMPDEST SWAP2 SWAP1 POP JUMP JUMPDEST PUSH1 0x1 SLOAD PUSH1 0x1 PUSH1 0xA0 PUSH1 0x2 EXP SUB AND DUP2 JUMP JUMPDEST PUSH1 0x3 DUP1 SLOAD PUSH1 0x40 DUP1 MLOAD PUSH1 0x20 PUSH1 0x2 PUSH1 0x1 DUP6 AND ISZERO PUSH2 0x100 MUL PUSH1 0x0 NOT ADD SWAP1 SWAP5 AND SWAP4 SWAP1 SWAP4 DIV PUSH1 0x1F DUP2 ADD DUP5 SWAP1 DIV DUP5 MUL DUP3 ADD DUP5 ADD SWAP1 SWAP3 MSTORE DUP2 DUP2 MSTORE SWAP3 SWAP2 DUP4 ADD DUP3 DUP3 DUP1 ISZERO PUSH2 0x63D JUMPI DUP1 PUSH1 0x1F LT PUSH2 0x612 JUMPI PUSH2 0x100 DUP1 DUP4 SLOAD DIV MUL DUP4 MSTORE SWAP2 PUSH1 0x20 ADD SWAP2 PUSH2 0x63D JUMP JUMPDEST DUP3 ADD SWAP2 SWAP1 PUSH1 0x0 MSTORE PUSH1 0x20 PUSH1 0x0 SHA3 SWAP1 JUMPDEST DUP2 SLOAD DUP2 MSTORE SWAP1 PUSH1 0x1 ADD SWAP1 PUSH1 0x20 ADD DUP1 DUP4 GT PUSH2 0x620 JUMPI DUP3 SWAP1 SUB PUSH1 0x1F AND DUP3 ADD SWAP2 JUMPDEST POP POP POP POP POP DUP2 JUMP JUMPDEST PUSH1 0x1 PUSH1 0xA0 PUSH1 0x2 EXP SUB CALLER AND PUSH1 0x0 SWAP1 DUP2 MSTORE PUSH1 0x9 PUSH1 0x20 MSTORE PUSH1 0x40 DUP2 SHA3 SLOAD PUSH2 0xB05 SWAP1 DUP4 PUSH2 0xE39 JUMP JUMPDEST PUSH1 0x1 PUSH1 0xA0 PUSH1 0x2 EXP SUB CALLER DUP2 AND PUSH1 0x0 SWAP1 DUP2 MSTORE PUSH1 0x9 PUSH1 0x20 MSTORE PUSH1 0x40 DUP1 DUP3 SHA3 SWAP4 SWAP1 SWAP4 SSTORE SWAP1 DUP6 AND DUP2 MSTORE SHA3 SLOAD PUSH2 0xB34 SWAP1 DUP4 PUSH2 0xE11 JUMP JUMPDEST PUSH1 0x1 PUSH1 0xA0 PUSH1 0x2 EXP SUB DUP1 DUP6 AND PUSH1 0x0 DUP2 DUP2 MSTORE PUSH1 0x9 PUSH1 0x20 SWAP1 DUP2 MSTORE PUSH1 0x40 SWAP2 DUP3 SWAP1 SHA3 SWAP5 SWAP1 SWAP5 SSTORE DUP1 MLOAD DUP7 DUP2 MSTORE SWAP1 MLOAD SWAP2 SWAP4 CALLER SWAP1 SWAP4 AND SWAP3 PUSH32 0xDDF252AD1BE2C89B69C2B068FC378DAA952BA7F163C4A11628F55A4DF523B3EF SWAP3 SWAP2 DUP3 SWAP1 SUB ADD SWAP1 LOG3 POP PUSH1 0x1 JUMPDEST SWAP3 SWAP2 POP POP JUMP JUMPDEST DUP3 PUSH2 0xBA1 DUP2 DUP5 PUSH2 0x645 JUMP JUMPDEST ISZERO PUSH2 0xCC1 JUMPI DUP1 PUSH1 0x1 PUSH1 0xA0 PUSH1 0x2 EXP SUB AND PUSH4 0x8F4FFCB1 CALLER DUP6 ADDRESS DUP7 PUSH1 0x40 MLOAD DUP6 PUSH4 0xFFFFFFFF AND PUSH29 0x100000000000000000000000000000000000000000000000000000000 MUL DUP2 MSTORE PUSH1 0x4 ADD DUP1 DUP6 PUSH1 0x1 PUSH1 0xA0 PUSH1 0x2 EXP SUB AND PUSH1 0x1 PUSH1 0xA0 PUSH1 0x2 EXP SUB AND DUP2 MSTORE PUSH1 0x20 ADD DUP5 DUP2 MSTORE PUSH1 0x20 ADD DUP4 PUSH1 0x1 PUSH1 0xA0 PUSH1 0x2 EXP SUB AND PUSH1 0x1 PUSH1 0xA0 PUSH1 0x2 EXP SUB AND DUP2 MSTORE PUSH1 0x20 ADD DUP1 PUSH1 0x20 ADD DUP3 DUP2 SUB DUP3 MSTORE DUP4 DUP2 DUP2 MLOAD DUP2 MSTORE PUSH1 0x20 ADD SWAP2 POP DUP1 MLOAD SWAP1 PUSH1 0x20 ADD SWAP1 DUP1 DUP4 DUP4 PUSH1 0x0 DUP4 EQ PUSH2 0xC65 JUMPI JUMPDEST DUP1 MLOAD DUP3 MSTORE PUSH1 0x20 DUP4 GT ISZERO PUSH2 0xC65 JUMPI PUSH1 0x1F NOT SWAP1 SWAP3 ADD SWAP2 PUSH1 0x20 SWAP2 DUP3 ADD SWAP2 ADD PUSH2 0xC45 JUMP JUMPDEST POP POP POP SWAP1 POP SWAP1 DUP2 ADD SWAP1 PUSH1 0x1F AND DUP1 ISZERO PUSH2 0xC91 JUMPI DUP1 DUP3 SUB DUP1 MLOAD PUSH1 0x1 DUP4 PUSH1 0x20 SUB PUSH2 0x100 EXP SUB NOT AND DUP2 MSTORE PUSH1 0x20 ADD SWAP2 POP JUMPDEST POP SWAP6 POP POP POP POP POP POP PUSH1 0x0 PUSH1 0x40 MLOAD DUP1 DUP4 SUB DUP2 PUSH1 0x0 DUP8 DUP1 EXTCODESIZE ISZERO ISZERO PUSH2 0xCAF JUMPI INVALID JUMPDEST PUSH2 0x2C6 GAS SUB CALL ISZERO ISZERO PUSH2 0xCBD JUMPI INVALID JUMPDEST POP POP POP JUMPDEST JUMPDEST POP POP POP POP JUMP JUMPDEST PUSH1 0x8 SLOAD PUSH1 0xFF AND DUP2 JUMP JUMPDEST PUSH1 0x1 PUSH1 0xA0 PUSH1 0x2 EXP SUB DUP1 DUP4 AND PUSH1 0x0 SWAP1 DUP2 MSTORE PUSH1 0xA PUSH1 0x20 SWAP1 DUP2 MSTORE PUSH1 0x40 DUP1 DUP4 SHA3 SWAP4 DUP6 AND DUP4 MSTORE SWAP3 SWAP1 MSTORE SHA3 SLOAD JUMPDEST SWAP3 SWAP2 POP POP JUMP JUMPDEST PUSH1 0x1 SLOAD PUSH1 0x0 SWAP1 CALLER PUSH1 0x1 PUSH1 0xA0 PUSH1 0x2 EXP SUB SWAP1 DUP2 AND SWAP2 AND EQ ISZERO PUSH2 0x6AA JUMPI PUSH1 0x1 PUSH1 0xA0 PUSH1 0x2 EXP SUB DUP4 AND PUSH1 0x0 SWAP1 DUP2 MSTORE PUSH1 0x9 PUSH1 0x20 MSTORE PUSH1 0x40 SWAP1 SHA3 SLOAD PUSH2 0xD3B SWAP1 DUP4 PUSH2 0xE39 JUMP JUMPDEST PUSH1 0x1 PUSH1 0xA0 PUSH1 0x2 EXP SUB DUP5 AND PUSH1 0x0 SWAP1 DUP2 MSTORE PUSH1 0x9 PUSH1 0x20 MSTORE PUSH1 0x40 SWAP1 SHA3 SSTORE PUSH1 0x7 SLOAD PUSH2 0xD61 SWAP1 DUP4 PUSH2 0xE39 JUMP JUMPDEST PUSH1 0x7 SSTORE PUSH1 0x40 DUP1 MLOAD DUP4 DUP2 MSTORE SWAP1 MLOAD PUSH1 0x0 SWAP2 PUSH1 0x1 PUSH1 0xA0 PUSH1 0x2 EXP SUB DUP7 AND SWAP2 PUSH32 0xDDF252AD1BE2C89B69C2B068FC378DAA952BA7F163C4A11628F55A4DF523B3EF SWAP2 DUP2 SWAP1 SUB PUSH1 0x20 ADD SWAP1 LOG3 POP PUSH1 0x1 JUMPDEST JUMPDEST JUMPDEST SWAP3 SWAP2 POP POP JUMP JUMPDEST PUSH1 0x1 SLOAD CALLER PUSH1 0x1 PUSH1 0xA0 PUSH1 0x2 EXP SUB SWAP1 DUP2 AND SWAP2 AND EQ ISZERO PUSH2 0xE0B JUMPI PUSH1 0x1 PUSH1 0xA0 PUSH1 0x2 EXP SUB DUP2 AND ISZERO PUSH2 0xE0B JUMPI PUSH1 0x1 DUP1 SLOAD PUSH32 0xFFFFFFFFFFFFFFFFFFFFFFFF0000000000000000000000000000000000000000 AND PUSH1 0x1 PUSH1 0xA0 PUSH1 0x2 EXP SUB DUP4 AND OR SWAP1 SSTORE JUMPDEST JUMPDEST JUMPDEST JUMPDEST POP JUMP JUMPDEST PUSH1 0x0 DUP3 DUP3 ADD PUSH2 0xE2E DUP5 DUP3 LT DUP1 ISZERO SWAP1 PUSH2 0xE29 JUMPI POP DUP4 DUP3 LT ISZERO JUMPDEST PUSH2 0xE52 JUMP JUMPDEST DUP1 SWAP2 POP JUMPDEST POP SWAP3 SWAP2 POP POP JUMP JUMPDEST PUSH1 0x0 PUSH2 0xE47 DUP4 DUP4 GT ISZERO PUSH2 0xE52 JUMP JUMPDEST POP DUP1 DUP3 SUB JUMPDEST SWAP3 SWAP2 POP POP JUMP JUMPDEST DUP1 ISZERO ISZERO PUSH2 0xE0B JUMPI PUSH1 0x0 PUSH1 0x0 REVERT JUMPDEST JUMPDEST POP JUMP STOP LOG1 PUSH6 0x627A7A723058 SHA3 0x22 EXTCODESIZE JUMP 0xc7 SWAP15 0xaa 0xdc SWAP8 SDIV 0x22 COINBASE 0x2d 0x2a PUSH10 0xA9AA9F3FE884CE539800 0xb4 0xbf 0x2a 0xbe 0xdc MSTORE LOG3 SLOAD STOP 0x29 "},"gasEstimates":{"creation":{"codeDepositCost":"745400","executionCost":"infinite","totalCost":"infinite"},"external":{"allowance(address,address)":"1051","approve(address,uint256)":"22356","approveAndCall(address,uint256,bytes)":"infinite","balanceOf(address)":"824","burn(uint256)":"infinite","decimals()":"498","forceApprove(address,address,uint256)":"22857","forceBurn(address,uint256)":"infinite","initialSupply()":"505","locked()":"715","name()":"infinite","owner()":"768","refill(address,uint256)":"infinite","symbol()":"infinite","totalSupply()":"439","transfer(address,uint256)":"infinite","transferFrom(address,address,uint256)":"infinite","transferOwnership(address)":"21306","version()":"infinite"}},"methodIdentifiers":{"allowance(address,address)":"dd62ed3e","approve(address,uint256)":"095ea7b3","approveAndCall(address,uint256,bytes)":"cae9ca51","balanceOf(address)":"70a08231","burn(uint256)":"42966c68","decimals()":"313ce567","forceApprove(address,address,uint256)":"61f49ed6","forceBurn(address,uint256)":"e2d6f634","initialSupply()":"378dc3dc","locked()":"cf309012","name()":"06fdde03","owner()":"8da5cb5b","refill(address,uint256)":"0aa3ae7e","symbol()":"95d89b41","totalSupply()":"18160ddd","transfer(address,uint256)":"a9059cbb","transferFrom(address,address,uint256)":"23b872dd","transferOwnership(address)":"f2fde38b","version()":"54fd4d50"}},"userdoc":{"methods":{}}}}}