{
  "_format": "hh-sol-artifact-1",
  "contractName": "Migrations",
  "sourceName": "contracts/Migrations.sol",
  "abi": [
    {
      "constant": false,
      "inputs": [
        {
          "name": "newAddress",
          "type": "address"
        }
      ],
      "name": "upgrade",
      "outputs": [],
      "payable": false,
      "type": "function"
    },
    {
      "constant": true,
      "inputs": [],
      "name": "owner",
      "outputs": [
        {
          "name": "",
          "type": "address"
        }
      ],
      "payable": false,
      "type": "function"
    },
    {
      "constant": false,
      "inputs": [
        {
          "name": "newOwner",
          "type": "address"
        }
      ],
      "name": "transferOwnership",
      "outputs": [],
      "payable": false,
      "type": "function"
    },
    {
      "constant": true,
      "inputs": [],
      "name": "lastCompletedMigration",
      "outputs": [
        {
          "name": "",
          "type": "uint256"
        }
      ],
      "payable": false,
      "type": "function"
    },
    {
      "constant": false,
      "inputs": [
        {
          "name": "completed",
          "type": "uint256"
        }
      ],
      "name": "setCompleted",
      "outputs": [],
      "payable": false,
      "type": "function"
    }
  ],
  "bytecode": "0x60606040525b60008054600160a060020a03191633600160a060020a03161790555b5b6102dd806100316000396000f300606060405263ffffffff7c01000000000000000000000000000000000000000000000000000000006000350416630900f01081146100665780638da5cb5b14610091578063f2fde38b146100ca578063fbdbad3c146100f5578063fdacd57614610117575bfe5b341561006e57fe5b61008f73ffffffffffffffffffffffffffffffffffffffff6004351661012c565b005b341561009957fe5b6100a16101d9565b6040805173ffffffffffffffffffffffffffffffffffffffff9092168252519081900360200190f35b34156100d257fe5b61008f73ffffffffffffffffffffffffffffffffffffffff600435166101f5565b005b34156100fd57fe5b61010561027c565b60408051918252519081900360200190f35b341561011f57fe5b61008f600435610282565b005b600080543373ffffffffffffffffffffffffffffffffffffffff908116911614156101d3578190508073ffffffffffffffffffffffffffffffffffffffff1663fdacd5766001546040518263ffffffff167c010000000000000000000000000000000000000000000000000000000002815260040180828152602001915050600060405180830381600087803b15156101c157fe5b6102c65a03f115156101cf57fe5b5050505b5b5b5050565b60005473ffffffffffffffffffffffffffffffffffffffff1681565b6000543373ffffffffffffffffffffffffffffffffffffffff908116911614156102765773ffffffffffffffffffffffffffffffffffffffff81161561027657600080547fffffffffffffffffffffffff00000000000000000000000000000000000000001673ffffffffffffffffffffffffffffffffffffffff83161790555b5b5b5b50565b60015481565b6000543373ffffffffffffffffffffffffffffffffffffffff908116911614156102765760018190555b5b5b505600a165627a7a72305820861e295592e0f5c53c282712afe0a6a024b78bbfb8b69acca55f3fbb6cd4952e0029",
  "linkReferences": {},
  "deployedLinkReferences": {}
}