{
  "_format": "hh-sol-artifact-1",
  "contractName": "RLC",
  "sourceName": "contracts/RLC.sol",
  "abi": [
    {
      "constant": true,
      "inputs": [],
      "name": "name",
      "outputs": [
        {
          "name": "",
          "type": "string"
        }
      ],
      "payable": false,
      "type": "function"
    },
    {
      "constant": false,
      "inputs": [
        {
          "name": "_spender",
          "type": "address"
        },
        {
          "name": "_value",
          "type": "uint256"
        }
      ],
      "name": "approve",
      "outputs": [
        {
          "name": "",
          "type": "bool"
        }
      ],
      "payable": false,
      "type": "function"
    },
    {
      "constant": false,
      "inputs": [
        {
          "name": "_to",
          "type": "address"
        },
        {
          "name": "_value",
          "type": "uint256"
        }
      ],
      "name": "refill",
      "outputs": [
        {
          "name": "",
          "type": "bool"
        }
      ],
      "payable": false,
      "type": "function"
    },
    {
      "constant": true,
      "inputs": [],
      "name": "totalSupply",
      "outputs": [
        {
          "name": "",
          "type": "uint256"
        }
      ],
      "payable": false,
      "type": "function"
    },
    {
      "constant": false,
      "inputs": [
        {
          "name": "_from",
          "type": "address"
        },
        {
          "name": "_to",
          "type": "address"
        },
        {
          "name": "_value",
          "type": "uint256"
        }
      ],
      "name": "transferFrom",
      "outputs": [
        {
          "name": "",
          "type": "bool"
        }
      ],
      "payable": false,
      "type": "function"
    },
    {
      "constant": true,
      "inputs": [],
      "name": "decimals",
      "outputs": [
        {
          "name": "",
          "type": "uint8"
        }
      ],
      "payable": false,
      "type": "function"
    },
    {
      "constant": true,
      "inputs": [],
      "name": "initialSupply",
      "outputs": [
        {
          "name": "",
          "type": "uint256"
        }
      ],
      "payable": false,
      "type": "function"
    },
    {
      "constant": false,
      "inputs": [
        {
          "name": "_value",
          "type": "uint256"
        }
      ],
      "name": "burn",
      "outputs": [
        {
          "name": "",
          "type": "bool"
        }
      ],
      "payable": false,
      "type": "function"
    },
    {
      "constant": true,
      "inputs": [],
      "name": "version",
      "outputs": [
        {
          "name": "",
          "type": "string"
        }
      ],
      "payable": false,
      "type": "function"
    },
    {
      "constant": false,
      "inputs": [
        {
          "name": "_giver",
          "type": "address"
        },
        {
          "name": "_spender",
          "type": "address"
        },
        {
          "name": "_value",
          "type": "uint256"
        }
      ],
      "name": "forceApprove",
      "outputs": [
        {
          "name": "",
          "type": "bool"
        }
      ],
      "payable": false,
      "type": "function"
    },
    {
      "constant": true,
      "inputs": [
        {
          "name": "_owner",
          "type": "address"
        }
      ],
      "name": "balanceOf",
      "outputs": [
        {
          "name": "balance",
          "type": "uint256"
        }
      ],
      "payable": false,
      "type": "function"
    },
    {
      "constant": true,
      "inputs": [],
      "name": "owner",
      "outputs": [
        {
          "name": "",
          "type": "address"
        }
      ],
      "payable": false,
      "type": "function"
    },
    {
      "constant": true,
      "inputs": [],
      "name": "symbol",
      "outputs": [
        {
          "name": "",
          "type": "string"
        }
      ],
      "payable": false,
      "type": "function"
    },
    {
      "constant": false,
      "inputs": [
        {
          "name": "_to",
          "type": "address"
        },
        {
          "name": "_value",
          "type": "uint256"
        }
      ],
      "name": "transfer",
      "outputs": [
        {
          "name": "",
          "type": "bool"
        }
      ],
      "payable": false,
      "type": "function"
    },
    {
      "constant": false,
      "inputs": [
        {
          "name": "_spender",
          "type": "address"
        },
        {
          "name": "_value",
          "type": "uint256"
        },
        {
          "name": "_extraData",
          "type": "bytes"
        }
      ],
      "name": "approveAndCall",
      "outputs": [],
      "payable": false,
      "type": "function"
    },
    {
      "constant": true,
      "inputs": [],
      "name": "locked",
      "outputs": [
        {
          "name": "",
          "type": "bool"
        }
      ],
      "payable": false,
      "type": "function"
    },
    {
      "constant": true,
      "inputs": [
        {
          "name": "_owner",
          "type": "address"
        },
        {
          "name": "_spender",
          "type": "address"
        }
      ],
      "name": "allowance",
      "outputs": [
        {
          "name": "remaining",
          "type": "uint256"
        }
      ],
      "payable": false,
      "type": "function"
    },
    {
      "constant": false,
      "inputs": [
        {
          "name": "_toburn",
          "type": "address"
        },
        {
          "name": "_value",
          "type": "uint256"
        }
      ],
      "name": "forceBurn",
      "outputs": [
        {
          "name": "",
          "type": "bool"
        }
      ],
      "payable": false,
      "type": "function"
    },
    {
      "constant": false,
      "inputs": [
        {
          "name": "newOwner",
          "type": "address"
        }
      ],
      "name": "transferOwnership",
      "outputs": [],
      "payable": false,
      "type": "function"
    },
    {
      "inputs": [],
      "payable": false,
      "type": "constructor"
    },
    {
      "anonymous": false,
      "inputs": [
        {
          "indexed": true,
          "name": "from",
          "type": "address"
        },
        {
          "indexed": true,
          "name": "to",
          "type": "address"
        },
        {
          "indexed": false,
          "name": "value",
          "type": "uint256"
        }
      ],
      "name": "Transfer",
      "type": "event"
    },
    {
      "anonymous": false,
      "inputs": [
        {
          "indexed": true,
          "name": "owner",
          "type": "address"
        },
        {
          "indexed": true,
          "name": "spender",
          "type": "address"
        },
        {
          "indexed": false,
          "name": "value",
          "type": "uint256"
        }
      ],
      "name": "Approval",
      "type": "event"
    }
  ],
  "bytecode": "0x60a0604052600460608190527f76302e3100000000000000000000000000000000000000000000000000000000608090815262000040916005919062000139565b5034156200004a57fe5b5b5b60018054600160a060020a03191633600160a060020a03161790555b6701351609ff75800060068190556007819055600160a060020a033316600090815260096020908152604091829020929092558051808201909152600f8082527f694578656320524c4320546f6b656e000000000000000000000000000000000091909201908152620000df916002919062000139565b506040805180820190915260038082527f524c430000000000000000000000000000000000000000000000000000000000602090920191825262000124918162000139565b506004805460ff191660091790555b620001e3565b828054600181600116156101000203166002900490600052602060002090601f016020900481019282601f106200017c57805160ff1916838001178555620001ac565b82800160010185558215620001ac579182015b82811115620001ac5782518255916020019190600101906200018f565b5b50620001bb929150620001bf565b5090565b620001e091905b80821115620001bb5760008155600101620001c6565b5090565b90565b610e8f80620001f36000396000f300606060405236156101045763ffffffff7c010000000000000000000000000000000000000000000000000000000060003504166306fdde038114610106578063095ea7b3146101965780630aa3ae7e146101c957806318160ddd146101fc57806323b872dd1461021e578063313ce56714610257578063378dc3dc1461027d57806342966c681461029f57806354fd4d50146102c657806361f49ed61461035657806370a082311461038f5780638da5cb5b146103bd57806395d89b41146103e9578063a9059cbb14610479578063cae9ca51146104ac578063cf30901214610511578063dd62ed3e14610535578063e2d6f63414610569578063f2fde38b1461059c575bfe5b341561010e57fe5b6101166105ba565b60408051602080825283518183015283519192839290830191850190808383821561015c575b80518252602083111561015c57601f19909201916020918201910161013c565b505050905090810190601f1680156101885780820380516001836020036101000a031916815260200191505b509250505060405180910390f35b341561019e57fe5b6101b5600160a060020a0360043516602435610645565b604080519115158252519081900360200190f35b34156101d157fe5b6101b5600160a060020a03600435166024356106b0565b604080519115158252519081900360200190f35b341561020457fe5b61020c610766565b60408051918252519081900360200190f35b341561022657fe5b6101b5600160a060020a036004358116906024351660443561076c565b604080519115158252519081900360200190f35b341561025f57fe5b61026761086f565b6040805160ff9092168252519081900360200190f35b341561028557fe5b61020c610878565b60408051918252519081900360200190f35b34156102a757fe5b6101b560043561087e565b604080519115158252519081900360200190f35b34156102ce57fe5b610116610914565b60408051602080825283518183015283519192839290830191850190808383821561015c575b80518252602083111561015c57601f19909201916020918201910161013c565b505050905090810190601f1680156101885780820380516001836020036101000a031916815260200191505b509250505060405180910390f35b341561035e57fe5b6101b5600160a060020a03600435811690602435166044356109a2565b604080519115158252519081900360200190f35b341561039757fe5b61020c600160a060020a0360043516610a26565b60408051918252519081900360200190f35b34156103c557fe5b6103cd610a45565b60408051600160a060020a039092168252519081900360200190f35b34156103f157fe5b610116610a54565b60408051602080825283518183015283519192839290830191850190808383821561015c575b80518252602083111561015c57601f19909201916020918201910161013c565b505050905090810190601f1680156101885780820380516001836020036101000a031916815260200191505b509250505060405180910390f35b341561048157fe5b6101b5600160a060020a0360043516602435610ae2565b604080519115158252519081900360200190f35b34156104b457fe5b604080516020600460443581810135601f810184900484028501840190955284845261050f948235600160a060020a0316946024803595606494929391909201918190840183828082843750949650610b9695505050505050565b005b341561051957fe5b6101b5610cc8565b604080519115158252519081900360200190f35b341561053d57fe5b61020c600160a060020a0360043581169060243516610cd1565b60408051918252519081900360200190f35b341561057157fe5b6101b5600160a060020a0360043516602435610cfe565b604080519115158252519081900360200190f35b34156105a457fe5b61050f600160a060020a0360043516610db1565b005b6002805460408051602060018416156101000260001901909316849004601f8101849004840282018401909252818152929183018282801561063d5780601f106106125761010080835404028352916020019161063d565b820191906000526020600020905b81548152906001019060200180831161062057829003601f168201915b505050505081565b600160a060020a033381166000818152600a6020908152604080832094871680845294825280832086905580518681529051929493927f8c5be1e5ebec7d5bd14f71427d1e84f3dd0314c0f7b2291e5b200ac8c7c3b925929181900390910190a35060015b92915050565b60015460009033600160a060020a03908116911614156106aa57600160a060020a0383166000908152600960205260409020546106ed9083610e11565b600160a060020a0384166000908152600960205260409020556007546107139083610e11565b600755604080518381529051600160a060020a038086169233909116917fddf252ad1be2c89b69c2b068fc378daa952ba7f163c4a11628f55a4df523b3ef9181900360200190a35060015b5b5b92915050565b60075481565b600160a060020a038084166000908152600a602090815260408083203385168452825280832054938616835260099091528120549091906107ad9084610e11565b600160a060020a0380861660009081526009602052604080822093909355908716815220546107dc9084610e39565b600160a060020a0386166000908152600960205260409020556107ff8184610e39565b600160a060020a038087166000818152600a60209081526040808320338616845282529182902094909455805187815290519288169391927fddf252ad1be2c89b69c2b068fc378daa952ba7f163c4a11628f55a4df523b3ef929181900390910190a3600191505b509392505050565b60045460ff1681565b60065481565b600160a060020a0333166000908152600960205260408120546108a19083610e39565b600160a060020a0333166000908152600960205260409020556007546108c79083610e39565b600755604080518381529051600091600160a060020a033316917fddf252ad1be2c89b69c2b068fc378daa952ba7f163c4a11628f55a4df523b3ef9181900360200190a35060015b919050565b6005805460408051602060026001851615610100026000190190941693909304601f8101849004840282018401909252818152929183018282801561063d5780601f106106125761010080835404028352916020019161063d565b820191906000526020600020905b81548152906001019060200180831161062057829003601f168201915b505050505081565b60015460009033600160a060020a0390811691161415610a1d57600160a060020a038085166000818152600a6020908152604080832094881680845294825291829020869055815186815291517f8c5be1e5ebec7d5bd14f71427d1e84f3dd0314c0f7b2291e5b200ac8c7c3b9259281900390910190a35060015b5b5b9392505050565b600160a060020a0381166000908152600960205260409020545b919050565b600154600160a060020a031681565b6003805460408051602060026001851615610100026000190190941693909304601f8101849004840282018401909252818152929183018282801561063d5780601f106106125761010080835404028352916020019161063d565b820191906000526020600020905b81548152906001019060200180831161062057829003601f168201915b505050505081565b600160a060020a033316600090815260096020526040812054610b059083610e39565b600160a060020a033381166000908152600960205260408082209390935590851681522054610b349083610e11565b600160a060020a038085166000818152600960209081526040918290209490945580518681529051919333909316927fddf252ad1be2c89b69c2b068fc378daa952ba7f163c4a11628f55a4df523b3ef92918290030190a35060015b92915050565b82610ba18184610645565b15610cc15780600160a060020a0316638f4ffcb1338530866040518563ffffffff167c01000000000000000000000000000000000000000000000000000000000281526004018085600160a060020a0316600160a060020a0316815260200184815260200183600160a060020a0316600160a060020a0316815260200180602001828103825283818151815260200191508051906020019080838360008314610c65575b805182526020831115610c6557601f199092019160209182019101610c45565b505050905090810190601f168015610c915780820380516001836020036101000a031916815260200191505b5095505050505050600060405180830381600087803b1515610caf57fe5b6102c65a03f11515610cbd57fe5b5050505b5b50505050565b60085460ff1681565b600160a060020a038083166000908152600a60209081526040808320938516835292905220545b92915050565b60015460009033600160a060020a03908116911614156106aa57600160a060020a038316600090815260096020526040902054610d3b9083610e39565b600160a060020a038416600090815260096020526040902055600754610d619083610e39565b600755604080518381529051600091600160a060020a038616917fddf252ad1be2c89b69c2b068fc378daa952ba7f163c4a11628f55a4df523b3ef9181900360200190a35060015b5b5b92915050565b60015433600160a060020a0390811691161415610e0b57600160a060020a03811615610e0b57600180547fffffffffffffffffffffffff000000000000000000000000000000000000000016600160a060020a0383161790555b5b5b5b50565b6000828201610e2e848210801590610e295750838210155b610e52565b8091505b5092915050565b6000610e4783831115610e52565b508082035b92915050565b801515610e0b5760006000fd5b5b505600a165627a7a72305820223b56c79eaadc970522412d2a69a9aa9f3fe884ce539800b4bf2abedc52a3540029",
  "linkReferences": {},
  "deployedLinkReferences": {}
}