{"abi":[{"type":"constructor","inputs":[],"stateMutability":"nonpayable"},{"type":"function","name":"allowance","inputs":[{"name":"_owner","type":"address","internalType":"address"},{"name":"_spender","type":"address","internalType":"address"}],"outputs":[{"name":"remaining","type":"uint256","internalType":"uint256"}],"stateMutability":"view"},{"type":"function","name":"approve","inputs":[{"name":"_spender","type":"address","internalType":"address"},{"name":"_value","type":"uint256","internalType":"uint256"}],"outputs":[{"name":"","type":"bool","internalType":"bool"}],"stateMutability":"nonpayable"},{"type":"function","name":"approveAndCall","inputs":[{"name":"_spender","type":"address","internalType":"address"},{"name":"_value","type":"uint256","internalType":"uint256"},{"name":"_extraData","type":"bytes","internalType":"bytes"}],"outputs":[],"stateMutability":"nonpayable"},{"type":"function","name":"balanceOf","inputs":[{"name":"_owner","type":"address","internalType":"address"}],"outputs":[{"name":"balance","type":"uint256","internalType":"uint256"}],"stateMutability":"view"},{"type":"function","name":"burn","inputs":[{"name":"_value","type":"uint256","internalType":"uint256"}],"outputs":[{"name":"","type":"bool","internalType":"bool"}],"stateMutability":"nonpayable"},{"type":"function","name":"decimals","inputs":[],"outputs":[{"name":"","type":"uint8","internalType":"uint8"}],"stateMutability":"view"},{"type":"function","name":"forceApprove","inputs":[{"name":"_giver","type":"address","internalType":"address"},{"name":"_spender","type":"address","internalType":"address"},{"name":"_value","type":"uint256","internalType":"uint256"}],"outputs":[{"name":"","type":"bool","internalType":"bool"}],"stateMutability":"nonpayable"},{"type":"function","name":"forceBurn","inputs":[{"name":"_toburn","type":"address","internalType":"address"},{"name":"_value","type":"uint256","internalType":"uint256"}],"outputs":[{"name":"","type":"bool","internalType":"bool"}],"stateMutability":"nonpayable"},{"type":"function","name":"initialSupply","inputs":[],"outputs":[{"name":"","type":"uint256","internalType":"uint256"}],"stateMutability":"view"},{"type":"function","name":"locked","inputs":[],"outputs":[{"name":"","type":"bool","internalType":"bool"}],"stateMutability":"view"},{"type":"function","name":"name","inputs":[],"outputs":[{"name":"","type":"string","internalType":"string"}],"stateMutability":"view"},{"type":"function","name":"owner","inputs":[],"outputs":[{"name":"","type":"address","internalType":"address"}],"stateMutability":"view"},{"type":"function","name":"refill","inputs":[{"name":"_to","type":"address","internalType":"address"},{"name":"_value","type":"uint256","internalType":"uint256"}],"outputs":[{"name":"","type":"bool","internalType":"bool"}],"stateMutability":"nonpayable"},{"type":"function","name":"symbol","inputs":[],"outputs":[{"name":"","type":"string","internalType":"string"}],"stateMutability":"view"},{"type":"function","name":"totalSupply","inputs":[],"outputs":[{"name":"","type":"uint256","internalType":"uint256"}],"stateMutability":"view"},{"type":"function","name":"transfer","inputs":[{"name":"_to","type":"address","internalType":"address"},{"name":"_value","type":"uint256","internalType":"uint256"}],"outputs":[{"name":"","type":"bool","internalType":"bool"}],"stateMutability":"nonpayable"},{"type":"function","name":"transferFrom","inputs":[{"name":"_from","type":"address","internalType":"address"},{"name":"_to","type":"address","internalType":"address"},{"name":"_value","type":"uint256","internalType":"uint256"}],"outputs":[{"name":"","type":"bool","internalType":"bool"}],"stateMutability":"nonpayable"},{"type":"function","name":"transferOwnership","inputs":[{"name":"newOwner","type":"address","internalType":"address"}],"outputs":[],"stateMutability":"nonpayable"},{"type":"function","name":"version","inputs":[],"outputs":[{"name":"","type":"string","internalType":"string"}],"stateMutability":"view"},{"type":"event","name":"Approval","inputs":[{"name":"owner","type":"address","indexed":true,"internalType":"address"},{"name":"spender","type":"address","indexed":true,"internalType":"address"},{"name":"value","type":"uint256","indexed":false,"internalType":"uint256"}],"anonymous":false},{"type":"event","name":"Transfer","inputs":[{"name":"from","type":"address","indexed":true,"internalType":"address"},{"name":"to","type":"address","indexed":true,"internalType":"address"},{"name":"value","type":"uint256","indexed":false,"internalType":"uint256"}],"anonymous":false}],"bytecode":{"object":"0x60c0604052600460808190526376302e3160e01b60a09081526100239190816100dd565b5034801561003057600080fd5b50600080546001600160a01b0319163390811782556701351609ff7580006005819055600681905590825260086020908152604092839020919091558151808301909252600f8083526e34a2bc32b190292621902a37b5b2b760891b9290910191825261009f916001916100dd565b5060408051808201909152600380825262524c4360e81b60209092019182526100ca916002916100dd565b506003805460ff19166009179055610170565b828054600181600116156101000203166002900490600052602060002090601f016020900481019282601f1061011e57805160ff191683800117855561014b565b8280016001018555821561014b579182015b8281111561014b578251825591602001919060010190610130565b5061015792915061015b565b5090565b5b80821115610157576000815560010161015c565b610c138061017f6000396000f3fe608060405234801561001057600080fd5b50600436106101215760003560e01c806361f49ed6116100ad578063cae9ca5111610071578063cae9ca511461035e578063cf3090121461041b578063dd62ed3e14610423578063e2d6f63414610451578063f2fde38b1461047d57610121565b806361f49ed6146102aa57806370a08231146102e05780638da5cb5b1461030657806395d89b411461032a578063a9059cbb1461033257610121565b806323b872dd116100f457806323b872dd14610229578063313ce5671461025f578063378dc3dc1461027d57806342966c681461028557806354fd4d50146102a257610121565b806306fdde0314610126578063095ea7b3146101a35780630aa3ae7e146101e357806318160ddd1461020f575b600080fd5b61012e6104a3565b6040805160208082528351818301528351919283929083019185019080838360005b83811015610168578181015183820152602001610150565b50505050905090810190601f1680156101955780820380516001836020036101000a031916815260200191505b509250505060405180910390f35b6101cf600480360360408110156101b957600080fd5b506001600160a01b038135169060200135610530565b604080519115158252519081900360200190f35b6101cf600480360360408110156101f957600080fd5b506001600160a01b038135169060200135610597565b61021761062e565b60408051918252519081900360200190f35b6101cf6004803603606081101561023f57600080fd5b506001600160a01b03813581169160208101359091169060400135610634565b610267610721565b6040805160ff9092168252519081900360200190f35b61021761072a565b6101cf6004803603602081101561029b57600080fd5b5035610730565b61012e610798565b6101cf600480360360608110156102c057600080fd5b506001600160a01b038135811691602081013590911690604001356107f3565b610217600480360360208110156102f657600080fd5b50356001600160a01b031661086e565b61030e610889565b604080516001600160a01b039092168252519081900360200190f35b61012e610898565b6101cf6004803603604081101561034857600080fd5b506001600160a01b0381351690602001356108f0565b6104196004803603606081101561037457600080fd5b6001600160a01b03823516916020810135918101906060810160408201356401000000008111156103a457600080fd5b8201836020820111156103b657600080fd5b803590602001918460018302840111640100000000831117156103d857600080fd5b91908080601f016020809104026020016040519081016040528093929190818152602001838380828437600092019190915250929550610982945050505050565b005b6101cf610a83565b6102176004803603604081101561043957600080fd5b506001600160a01b0381358116916020013516610a8c565b6101cf6004803603604081101561046757600080fd5b506001600160a01b038135169060200135610ab7565b6104196004803603602081101561049357600080fd5b50356001600160a01b0316610b4f565b60018054604080516020600284861615610100026000190190941693909304601f810184900484028201840190925281815292918301828280156105285780601f106104fd57610100808354040283529160200191610528565b820191906000526020600020905b81548152906001019060200180831161050b57829003601f168201915b505050505081565b3360008181526009602090815260408083206001600160a01b038716808552908352818420869055815186815291519394909390927f8c5be1e5ebec7d5bd14f71427d1e84f3dd0314c0f7b2291e5b200ac8c7c3b925928290030190a35060015b92915050565b600080546001600160a01b0316331415610591576001600160a01b0383166000908152600860205260409020546105ce9083610b90565b6001600160a01b0384166000908152600860205260409020556006546105f49083610b90565b6006556040805183815290516001600160a01b038516913391600080516020610bbe8339815191529181900360200190a350600192915050565b60065481565b6001600160a01b038084166000908152600960209081526040808320338452825280832054938616835260089091528120549091906106739084610b90565b6001600160a01b0380861660009081526008602052604080822093909355908716815220546106a29084610bab565b6001600160a01b0386166000908152600860205260409020556106c58184610bab565b6001600160a01b0380871660008181526009602090815260408083203384528252918290209490945580518781529051928816939192600080516020610bbe833981519152929181900390910190a360019150505b9392505050565b60035460ff1681565b60055481565b3360009081526008602052604081205461074a9083610bab565b336000908152600860205260409020556006546107679083610bab565b6006556040805183815290516000913391600080516020610bbe8339815191529181900360200190a3506001919050565b6004805460408051602060026001851615610100026000190190941693909304601f810184900484028201840190925281815292918301828280156105285780601f106104fd57610100808354040283529160200191610528565b600080546001600160a01b031633141561071a576001600160a01b03808516600081815260096020908152604080832094881680845294825291829020869055815186815291517f8c5be1e5ebec7d5bd14f71427d1e84f3dd0314c0f7b2291e5b200ac8c7c3b9259281900390910190a35060019392505050565b6001600160a01b031660009081526008602052604090205490565b6000546001600160a01b031681565b6002805460408051602060018416156101000260001901909316849004601f810184900484028201840190925281815292918301828280156105285780601f106104fd57610100808354040283529160200191610528565b3360009081526008602052604081205461090a9083610bab565b33600090815260086020526040808220929092556001600160a01b038516815220546109369083610b90565b6001600160a01b038416600081815260086020908152604091829020939093558051858152905191923392600080516020610bbe8339815191529281900390910190a350600192915050565b8261098d8184610530565b15610a7d57806001600160a01b0316638f4ffcb1338530866040518563ffffffff1660e01b815260040180856001600160a01b03168152602001848152602001836001600160a01b0316815260200180602001828103825283818151815260200191508051906020019080838360005b83811015610a155781810151838201526020016109fd565b50505050905090810190601f168015610a425780820380516001836020036101000a031916815260200191505b5095505050505050600060405180830381600087803b158015610a6457600080fd5b505af1158015610a78573d6000803e3d6000fd5b505050505b50505050565b60075460ff1681565b6001600160a01b03918216600090815260096020908152604080832093909416825291909152205490565b600080546001600160a01b0316331415610591576001600160a01b038316600090815260086020526040902054610aee9083610bab565b6001600160a01b038416600090815260086020526040902055600654610b149083610bab565b6006556040805183815290516000916001600160a01b03861691600080516020610bbe8339815191529181900360200190a350600192915050565b6000546001600160a01b0316331415610b8d576001600160a01b03811615610b8d57600080546001600160a01b0319166001600160a01b0383161790555b50565b6000828201838110801590610ba55750828110155b61071a57fe5b600082821115610bb757fe5b5090039056feddf252ad1be2c89b69c2b068fc378daa952ba7f163c4a11628f55a4df523b3efa2646970667358221220c55641776599fd9801fade1325167c69297c36bac9a503138e4dd48dc36830e364736f6c634300060c0033","linkReferences":{}},"methodIdentifiers":{"allowance(address,address)":"dd62ed3e","approve(address,uint256)":"095ea7b3","approveAndCall(address,uint256,bytes)":"cae9ca51","balanceOf(address)":"70a08231","burn(uint256)":"42966c68","decimals()":"313ce567","forceApprove(address,address,uint256)":"61f49ed6","forceBurn(address,uint256)":"e2d6f634","initialSupply()":"378dc3dc","locked()":"cf309012","name()":"06fdde03","owner()":"8da5cb5b","refill(address,uint256)":"0aa3ae7e","symbol()":"95d89b41","totalSupply()":"18160ddd","transfer(address,uint256)":"a9059cbb","transferFrom(address,address,uint256)":"23b872dd","transferOwnership(address)":"f2fde38b","version()":"54fd4d50"},"id":3}